{
  "contractName": "CV",
  "abi": [
    {
      "constant": true,
      "inputs": [],
      "name": "getCurrentCity",
      "outputs": [
        {
          "name": "",
          "type": "string"
        }
      ],
      "payable": false,
      "stateMutability": "view",
      "type": "function"
    },
    {
      "constant": true,
      "inputs": [],
      "name": "getName",
      "outputs": [
        {
          "name": "",
          "type": "string"
        }
      ],
      "payable": false,
      "stateMutability": "view",
      "type": "function"
    },
    {
      "constant": true,
      "inputs": [],
      "name": "getDescription",
      "outputs": [
        {
          "name": "",
          "type": "string"
        }
      ],
      "payable": false,
      "stateMutability": "view",
      "type": "function"
    },
    {
      "constant": true,
      "inputs": [],
      "name": "getCurrentState",
      "outputs": [
        {
          "name": "",
          "type": "string"
        }
      ],
      "payable": false,
      "stateMutability": "view",
      "type": "function"
    },
    {
      "constant": true,
      "inputs": [],
      "name": "getAddress",
      "outputs": [
        {
          "name": "",
          "type": "string"
        }
      ],
      "payable": false,
      "stateMutability": "view",
      "type": "function"
    },
    {
      "constant": true,
      "inputs": [
        {
          "name": "companyID",
          "type": "uint256"
        }
      ],
      "name": "getPriorExperience",
      "outputs": [
        {
          "name": "",
          "type": "string"
        },
        {
          "name": "",
          "type": "string"
        },
        {
          "name": "",
          "type": "string"
        },
        {
          "name": "",
          "type": "string"
        },
        {
          "name": "",
          "type": "string"
        },
        {
          "name": "",
          "type": "string"
        },
        {
          "name": "",
          "type": "string"
        }
      ],
      "payable": false,
      "stateMutability": "view",
      "type": "function"
    },
    {
      "constant": true,
      "inputs": [],
      "name": "getOneLineSummary",
      "outputs": [
        {
          "name": "",
          "type": "string"
        }
      ],
      "payable": false,
      "stateMutability": "view",
      "type": "function"
    },
    {
      "constant": true,
      "inputs": [],
      "name": "getCurrentEmployer",
      "outputs": [
        {
          "name": "",
          "type": "string"
        }
      ],
      "payable": false,
      "stateMutability": "view",
      "type": "function"
    },
    {
      "constant": true,
      "inputs": [],
      "name": "getCurrentRole",
      "outputs": [
        {
          "name": "",
          "type": "string"
        }
      ],
      "payable": false,
      "stateMutability": "view",
      "type": "function"
    },
    {
      "constant": true,
      "inputs": [],
      "name": "getCollegeName",
      "outputs": [
        {
          "name": "",
          "type": "string"
        }
      ],
      "payable": false,
      "stateMutability": "view",
      "type": "function"
    },
    {
      "constant": true,
      "inputs": [],
      "name": "elementsAreSet",
      "outputs": [
        {
          "name": "",
          "type": "bool"
        },
        {
          "name": "",
          "type": "string"
        }
      ],
      "payable": false,
      "stateMutability": "view",
      "type": "function"
    },
    {
      "constant": true,
      "inputs": [],
      "name": "getAuthor",
      "outputs": [
        {
          "name": "",
          "type": "string"
        },
        {
          "name": "",
          "type": "string"
        }
      ],
      "payable": false,
      "stateMutability": "view",
      "type": "function"
    },
    {
      "constant": true,
      "inputs": [],
      "name": "getPhoto",
      "outputs": [
        {
          "name": "",
          "type": "string"
        }
      ],
      "payable": false,
      "stateMutability": "view",
      "type": "function"
    },
    {
      "constant": true,
      "inputs": [],
      "name": "getPriorExperienceCount",
      "outputs": [
        {
          "name": "",
          "type": "uint256"
        }
      ],
      "payable": false,
      "stateMutability": "view",
      "type": "function"
    },
    {
      "inputs": [],
      "payable": false,
      "stateMutability": "view",
      "type": "function",
      "constant": true,
      "name": "getCurrentCountry",
      "outputs": [
        {
          "name": "",
          "type": "string"
        }
      ]
    },
    {
      "constant": true,
      "inputs": [],
      "name": "getTitle",
      "outputs": [
        {
          "name": "",
          "type": "string"
        }
      ],
      "payable": false,
      "stateMutability": "view",
      "type": "function"
    },
    {
      "inputs": [],
      "payable": false,
      "stateMutability": "nonpayable",
      "type": "constructor"
    }
  ],
  "bytecode": "0x606060405234156200001057600080fd5b6200002e6200008e640100000000026200196b176401000000009004565b6200004c6200049b6401000000000262001d66176401000000009004565b6200006a62000c5764010000000002620024e2176401000000009004565b62000088620013ab6401000000000262002bf5176401000000009004565b62001d58565b60a060405190810160405280607b81526020017f68747470733a2f2f6d656469612e6c6963646e2e636f6d2f6d70722f6d70722f81526020017f736872696e6b6e705f3430305f3430302f41414541415141414141414141415181526020017f4e414141414a446330596d4535595751774c574d7a4d5445744e446b794e433181526020017f69596d457a4c544134597a6c6b4f545a6a4d445a684f512e6a706700000000008152506000800190805190602001906200015092919062001ca9565b506040805190810160405280600d81526020017f53616e6a6179204d69736872610000000000000000000000000000000000000081525060006001019080519060200190620001a192919062001ca9565b50608060405190810160405280604d81526020017f546563686e6963616c2045787065727420617420436f72706f7261746520526581526020017f7365617263682c205369656d656e7320546563686e6f6c6f677920536572766981526020017f636573205076742e204c74642e00000000000000000000000000000000000000815250600060020190805190602001906200023f92919062001ca9565b506040805190810160405280601881526020017f5369656d656e7320546563686e6f6c6f677920496e6469610000000000000000815250600060030190805190602001906200029092919062001ca9565b506040805190810160405280601a81526020017f4b756d616f6e20456e67696e656572696e6720436f6c6c65676500000000000081525060006004019080519060200190620002e192919062001ca9565b506040805190810160405280600981526020017f42616e67616c6f72650000000000000000000000000000000000000000000000815250600060050190805190602001906200033292919062001ca9565b506040805190810160405280600981526020017f4b61726e6174616b610000000000000000000000000000000000000000000000815250600060060190805190602001906200038392919062001ca9565b5060a060405190810160405280606a81526020017f31322b207965617273206f6620657870657269656e636520696e20736f66747781526020017f6172652064657369676e20616e6420646576656c6f706d656e742e436f6e737581526020017f6c74616e7420696e20536f66747761726520617263686974656374757265206181526020017f6e642064657369676e2e00000000000000000000000000000000000000000000815250600060080190805190602001906200044792919062001ca9565b506040805190810160405280600581526020017f496e646961000000000000000000000000000000000000000000000000000000815250600060070190805190602001906200049892919062001ca9565b50565b600060a060405190810160405280606881526020017f68747470733a2f2f656e637279707465642d74626e302e677374617469632e6381526020017f6f6d2f696d616765733f713d74626e3a414e64394763534f584c4f726c67566481526020017f61352d61354b756b6771544c5939674155633230366e384e37784b395a58315381526020017f34455474464e55720000000000000000000000000000000000000000000000008152508160000190805190602001906200055f92919062001ca9565b506040805190810160405280601b81526020017f4465706172746d656e74206f662041746f6d696320456e657267790000000000815250816001019080519060200190620005af92919062001ca9565b506040805190810160405280600981526020017f536369656e746973740000000000000000000000000000000000000000000000815250816002019080519060200190620005ff92919062001ca9565b506040805190810160405280600c81526020017f4175677573742d203230303500000000000000000000000000000000000000008152508160030190805190602001906200064f92919062001ca9565b506040805190810160405280600c81526020017f4175677573742d203230303700000000000000000000000000000000000000008152508160040190805190602001906200069f92919062001ca9565b506040805190810160405280600781526020017f4d756d6162616900000000000000000000000000000000000000000000000000815250816005019080519060200190620006ef92919062001ca9565b50608060405190810160405280605581526020017f436f6d6d697373696f6e696e672053696d756c61746f7220666f72204b75646181526020017f6e6b756c616d204e75636c65617220506f77657220706c616e74202d2031303081526020017f30204d57204e75636c6561722052656163746f722000000000000000000000008152508160060190805190602001906200078c92919062001ca9565b5062000c428160e06040519081016040529081600082018054600181600116156101000203166002900480601f0160208091040260200160405190810160405280929190818152602001828054600181600116156101000203166002900480156200083b5780601f106200080f576101008083540402835291602001916200083b565b820191906000526020600020905b8154815290600101906020018083116200081d57829003601f168201915b50505050508152602001600182018054600181600116156101000203166002900480601f016020809104026020016040519081016040528092919081815260200182805460018160011615610100020316600290048015620008e15780601f10620008b557610100808354040283529160200191620008e1565b820191906000526020600020905b815481529060010190602001808311620008c357829003601f168201915b50505050508152602001600282018054600181600116156101000203166002900480601f016020809104026020016040519081016040528092919081815260200182805460018160011615610100020316600290048015620009875780601f106200095b5761010080835404028352916020019162000987565b820191906000526020600020905b8154815290600101906020018083116200096957829003601f168201915b50505050508152602001600382018054600181600116156101000203166002900480601f01602080910402602001604051908101604052809291908181526020018280546001816001161561010002031660029004801562000a2d5780601f1062000a015761010080835404028352916020019162000a2d565b820191906000526020600020905b81548152906001019060200180831162000a0f57829003601f168201915b50505050508152602001600482018054600181600116156101000203166002900480601f01602080910402602001604051908101604052809291908181526020018280546001816001161561010002031660029004801562000ad35780601f1062000aa75761010080835404028352916020019162000ad3565b820191906000526020600020905b81548152906001019060200180831162000ab557829003601f168201915b50505050508152602001600582018054600181600116156101000203166002900480601f01602080910402602001604051908101604052809291908181526020018280546001816001161561010002031660029004801562000b795780601f1062000b4d5761010080835404028352916020019162000b79565b820191906000526020600020905b81548152906001019060200180831162000b5b57829003601f168201915b50505050508152602001600682018054600181600116156101000203166002900480601f01602080910402602001604051908101604052809291908181526020018280546001816001161561010002031660029004801562000c1f5780601f1062000bf35761010080835404028352916020019162000c1f565b820191906000526020600020905b81548152906001019060200180831162000c0157829003601f168201915b50505050508152505062001b41640100000000026200334b176401000000009004565b600a6000815480929190600101919050555050565b600060c060405190810160405280608181526020016200535f6081913981600001908051906020019062000c8d92919062001ca9565b506040805190810160405280601381526020017f5369656d656e73204865616c7468696e6565720000000000000000000000000081525081600101908051906020019062000cdd92919062001ca9565b506040805190810160405280601281526020017f536f66747761726520417263686974656374000000000000000000000000000081525081600201908051906020019062000d2d92919062001ca9565b506040805190810160405280600c81526020017f4175677573742d2032303037000000000000000000000000000000000000000081525081600301908051906020019062000d7d92919062001ca9565b506040805190810160405280600b81526020017f417072696c2d203230313600000000000000000000000000000000000000000081525081600401908051906020019062000dcd92919062001ca9565b506040805190810160405280600e81526020017f42616e67616c6f7265204172656100000000000000000000000000000000000081525081600501908051906020019062000e1d92919062001ca9565b5060a060405190810160405280606681526020017f50726f766964696e672041726368697465637475726520737570706f7274206681526020017f6f7220666f7220204d4d4f6e636f6c6f67792c204d4943617264696f4c6f677981526020017f2c204d494e6575726f6c6f677920616e64204d492052656164696e6720776f7281526020017f6b666c6f7773000000000000000000000000000000000000000000000000000081525081600601908051906020019062000ee092919062001ca9565b50620013968160e06040519081016040529081600082018054600181600116156101000203166002900480601f01602080910402602001604051908101604052809291908181526020018280546001816001161561010002031660029004801562000f8f5780601f1062000f635761010080835404028352916020019162000f8f565b820191906000526020600020905b81548152906001019060200180831162000f7157829003601f168201915b50505050508152602001600182018054600181600116156101000203166002900480601f016020809104026020016040519081016040528092919081815260200182805460018160011615610100020316600290048015620010355780601f10620010095761010080835404028352916020019162001035565b820191906000526020600020905b8154815290600101906020018083116200101757829003601f168201915b50505050508152602001600282018054600181600116156101000203166002900480601f016020809104026020016040519081016040528092919081815260200182805460018160011615610100020316600290048015620010db5780601f10620010af57610100808354040283529160200191620010db565b820191906000526020600020905b815481529060010190602001808311620010bd57829003601f168201915b50505050508152602001600382018054600181600116156101000203166002900480601f016020809104026020016040519081016040528092919081815260200182805460018160011615610100020316600290048015620011815780601f10620011555761010080835404028352916020019162001181565b820191906000526020600020905b8154815290600101906020018083116200116357829003601f168201915b50505050508152602001600482018054600181600116156101000203166002900480601f016020809104026020016040519081016040528092919081815260200182805460018160011615610100020316600290048015620012275780601f10620011fb5761010080835404028352916020019162001227565b820191906000526020600020905b8154815290600101906020018083116200120957829003601f168201915b50505050508152602001600582018054600181600116156101000203166002900480601f016020809104026020016040519081016040528092919081815260200182805460018160011615610100020316600290048015620012cd5780601f10620012a157610100808354040283529160200191620012cd565b820191906000526020600020905b815481529060010190602001808311620012af57829003601f168201915b50505050508152602001600682018054600181600116156101000203166002900480601f016020809104026020016040519081016040528092919081815260200182805460018160011615610100020316600290048015620013735780601f10620013475761010080835404028352916020019162001373565b820191906000526020600020905b8154815290600101906020018083116200135557829003601f168201915b50505050508152505062001b41640100000000026200334b176401000000009004565b600a6000815480929190600101919050555050565b6000608060405190810160405280604a81526020017f68747470733a2f2f6d656469612e6c6963646e2e636f6d2f6d70722f6d70722f81526020017f736872696e6b5f3130305f3130302f702f342f3030302f3137322f3138652f3281526020017f3437623436332e706e67000000000000000000000000000000000000000000008152508160000190805190602001906200144992919062001ca9565b506040805190810160405280601881526020017f5369656d656e7320546563686e6f6c6f677920496e64696100000000000000008152508160010190805190602001906200149992919062001ca9565b506040805190810160405280601081526020017f546563686e6963616c2045787065727400000000000000000000000000000000815250816002019080519060200190620014e992919062001ca9565b506040805190810160405280600a81526020017f417072696c2032303136000000000000000000000000000000000000000000008152508160030190805190602001906200153992919062001ca9565b506040805190810160405280600881526020017f54696c20446174650000000000000000000000000000000000000000000000008152508160040190805190602001906200158992919062001ca9565b506040805190810160405280600e81526020017f42616e67616c6f72652041726561000000000000000000000000000000000000815250816005019080519060200190620015d992919062001ca9565b50608060405190810160405280605c81526020017f44656c6976657220616e642070726f7669646520737570706f727420696e207381526020017f6f6674776172652061726368697465637475726520666f7220636f6d70616e7981526020017fe2809973206469666672656e7420427573696e65737320556e697473000000008152508160060190805190602001906200167692919062001ca9565b5062001b2c8160e06040519081016040529081600082018054600181600116156101000203166002900480601f016020809104026020016040519081016040528092919081815260200182805460018160011615610100020316600290048015620017255780601f10620016f95761010080835404028352916020019162001725565b820191906000526020600020905b8154815290600101906020018083116200170757829003601f168201915b50505050508152602001600182018054600181600116156101000203166002900480601f016020809104026020016040519081016040528092919081815260200182805460018160011615610100020316600290048015620017cb5780601f106200179f57610100808354040283529160200191620017cb565b820191906000526020600020905b815481529060010190602001808311620017ad57829003601f168201915b50505050508152602001600282018054600181600116156101000203166002900480601f016020809104026020016040519081016040528092919081815260200182805460018160011615610100020316600290048015620018715780601f10620018455761010080835404028352916020019162001871565b820191906000526020600020905b8154815290600101906020018083116200185357829003601f168201915b50505050508152602001600382018054600181600116156101000203166002900480601f016020809104026020016040519081016040528092919081815260200182805460018160011615610100020316600290048015620019175780601f10620018eb5761010080835404028352916020019162001917565b820191906000526020600020905b815481529060010190602001808311620018f957829003601f168201915b50505050508152602001600482018054600181600116156101000203166002900480601f016020809104026020016040519081016040528092919081815260200182805460018160011615610100020316600290048015620019bd5780601f106200199157610100808354040283529160200191620019bd565b820191906000526020600020905b8154815290600101906020018083116200199f57829003601f168201915b50505050508152602001600582018054600181600116156101000203166002900480601f01602080910402602001604051908101604052809291908181526020018280546001816001161561010002031660029004801562001a635780601f1062001a375761010080835404028352916020019162001a63565b820191906000526020600020905b81548152906001019060200180831162001a4557829003601f168201915b50505050508152602001600682018054600181600116156101000203166002900480601f01602080910402602001604051908101604052809291908181526020018280546001816001161561010002031660029004801562001b095780601f1062001add5761010080835404028352916020019162001b09565b820191906000526020600020905b81548152906001019060200180831162001aeb57829003601f168201915b50505050508152505062001b41640100000000026200334b176401000000009004565b600a6000815480929190600101919050555050565b806000015160096000600a548152602001908152602001600020600001908051906020019062001b7392919062001ca9565b50806020015160096000600a548152602001908152602001600020600101908051906020019062001ba692919062001ca9565b50806040015160096000600a548152602001908152602001600020600201908051906020019062001bd992919062001ca9565b50806060015160096000600a548152602001908152602001600020600301908051906020019062001c0c92919062001ca9565b50806080015160096000600a548152602001908152602001600020600401908051906020019062001c3f92919062001ca9565b508060a0015160096000600a548152602001908152602001600020600501908051906020019062001c7292919062001ca9565b508060c0015160096000600a548152602001908152602001600020600601908051906020019062001ca592919062001ca9565b5050565b828054600181600116156101000203166002900490600052602060002090601f016020900481019282601f1062001cec57805160ff191683800117855562001d1d565b8280016001018555821562001d1d579182015b8281111562001d1c57825182559160200191906001019062001cff565b5b50905062001d2c919062001d30565b5090565b62001d5591905b8082111562001d5157600081600090555060010162001d37565b5090565b90565b6135f78062001d686000396000f3006060604052600436106100e6576000357c0100000000000000000000000000000000000000000000000000000000900463ffffffff16806301efb7a4146100eb57806317d7de7c146101795780631a09254114610207578063378aa7011461029557806338cc4831146103235780634245e6c9146103b15780635027f633146106d55780635d5fa2b71461076357806365231307146107f15780636c08283f1461087f5780637e9aef531461090d578063a5faa1251461093a578063b2ec005e14610a34578063ba9fa17714610ac2578063f173c2e214610aeb578063ff3c1a8f14610b79575b600080fd5b34156100f657600080fd5b6100fe610c07565b6040518080602001828103825283818151815260200191508051906020019080838360005b8381101561013e578082015181840152602081019050610123565b50505050905090810190601f16801561016b5780820380516001836020036101000a031916815260200191505b509250505060405180910390f35b341561018457600080fd5b61018c610cb2565b6040518080602001828103825283818151815260200191508051906020019080838360005b838110156101cc5780820151818401526020810190506101b1565b50505050905090810190601f1680156101f95780820380516001836020036101000a031916815260200191505b509250505060405180910390f35b341561021257600080fd5b61021a610d5d565b6040518080602001828103825283818151815260200191508051906020019080838360005b8381101561025a57808201518184015260208101905061023f565b50505050905090810190601f1680156102875780820380516001836020036101000a031916815260200191505b509250505060405180910390f35b34156102a057600080fd5b6102a8610da0565b6040518080602001828103825283818151815260200191508051906020019080838360005b838110156102e85780820151818401526020810190506102cd565b50505050905090810190601f1680156103155780820380516001836020036101000a031916815260200191505b509250505060405180910390f35b341561032e57600080fd5b610336610e4b565b6040518080602001828103825283818151815260200191508051906020019080838360005b8381101561037657808201518184015260208101905061035b565b50505050905090810190601f1680156103a35780820380516001836020036101000a031916815260200191505b509250505060405180910390f35b34156103bc57600080fd5b6103d26004808035906020019091905050610e8e565b604051808060200180602001806020018060200180602001806020018060200188810388528f818151815260200191508051906020019080838360005b8381101561042a57808201518184015260208101905061040f565b50505050905090810190601f1680156104575780820380516001836020036101000a031916815260200191505b5088810387528e818151815260200191508051906020019080838360005b83811015610490578082015181840152602081019050610475565b50505050905090810190601f1680156104bd5780820380516001836020036101000a031916815260200191505b5088810386528d818151815260200191508051906020019080838360005b838110156104f65780820151818401526020810190506104db565b50505050905090810190601f1680156105235780820380516001836020036101000a031916815260200191505b5088810385528c818151815260200191508051906020019080838360005b8381101561055c578082015181840152602081019050610541565b50505050905090810190601f1680156105895780820380516001836020036101000a031916815260200191505b5088810384528b818151815260200191508051906020019080838360005b838110156105c25780820151818401526020810190506105a7565b50505050905090810190601f1680156105ef5780820380516001836020036101000a031916815260200191505b5088810383528a818151815260200191508051906020019080838360005b8381101561062857808201518184015260208101905061060d565b50505050905090810190601f1680156106555780820380516001836020036101000a031916815260200191505b50888103825289818151815260200191508051906020019080838360005b8381101561068e578082015181840152602081019050610673565b50505050905090810190601f1680156106bb5780820380516001836020036101000a031916815260200191505b509e50505050505050505050505050505060405180910390f35b34156106e057600080fd5b6106e86113bd565b6040518080602001828103825283818151815260200191508051906020019080838360005b8381101561072857808201518184015260208101905061070d565b50505050905090810190601f1680156107555780820380516001836020036101000a031916815260200191505b509250505060405180910390f35b341561076e57600080fd5b610776611468565b6040518080602001828103825283818151815260200191508051906020019080838360005b838110156107b657808201518184015260208101905061079b565b50505050905090810190601f1680156107e35780820380516001836020036101000a031916815260200191505b509250505060405180910390f35b34156107fc57600080fd5b610804611513565b6040518080602001828103825283818151815260200191508051906020019080838360005b83811015610844578082015181840152602081019050610829565b50505050905090810190601f1680156108715780820380516001836020036101000a031916815260200191505b509250505060405180910390f35b341561088a57600080fd5b6108926115be565b6040518080602001828103825283818151815260200191508051906020019080838360005b838110156108d25780820151818401526020810190506108b7565b50505050905090810190601f1680156108ff5780820380516001836020036101000a031916815260200191505b509250505060405180910390f35b341561091857600080fd5b610920611669565b604051808215151515815260200191505060405180910390f35b341561094557600080fd5b61094d61171d565b604051808060200180602001838103835285818151815260200191508051906020019080838360005b83811015610991578082015181840152602081019050610976565b50505050905090810190601f1680156109be5780820380516001836020036101000a031916815260200191505b50838103825284818151815260200191508051906020019080838360005b838110156109f75780820151818401526020810190506109dc565b50505050905090810190601f168015610a245780820380516001836020036101000a031916815260200191505b5094505050505060405180910390f35b3415610a3f57600080fd5b610a476117a1565b6040518080602001828103825283818151815260200191508051906020019080838360005b83811015610a87578082015181840152602081019050610a6c565b50505050905090810190601f168015610ab45780820380516001836020036101000a031916815260200191505b509250505060405180910390f35b3415610acd57600080fd5b610ad561184b565b6040518082815260200191505060405180910390f35b3415610af657600080fd5b610afe611855565b6040518080602001828103825283818151815260200191508051906020019080838360005b83811015610b3e578082015181840152602081019050610b23565b50505050905090810190601f168015610b6b5780820380516001836020036101000a031916815260200191505b509250505060405180910390f35b3415610b8457600080fd5b610b8c611900565b6040518080602001828103825283818151815260200191508051906020019080838360005b83811015610bcc578082015181840152602081019050610bb1565b50505050905090810190601f168015610bf95780820380516001836020036101000a031916815260200191505b509250505060405180910390f35b610c0f611943565b60006005018054600181600116156101000203166002900480601f016020809104026020016040519081016040528092919081815260200182805460018160011615610100020316600290048015610ca85780601f10610c7d57610100808354040283529160200191610ca8565b820191906000526020600020905b815481529060010190602001808311610c8b57829003601f168201915b5050505050905090565b610cba611943565b60006001018054600181600116156101000203166002900480601f016020809104026020016040519081016040528092919081815260200182805460018160011615610100020316600290048015610d535780601f10610d2857610100808354040283529160200191610d53565b820191906000526020600020905b815481529060010190602001808311610d3657829003601f168201915b5050505050905090565b610d65611943565b6040805190810160405280601281526020017f5468697320697320616e206578616d706c650000000000000000000000000000815250905090565b610da8611943565b60006006018054600181600116156101000203166002900480601f016020809104026020016040519081016040528092919081815260200182805460018160011615610100020316600290048015610e415780601f10610e1657610100808354040283529160200191610e41565b820191906000526020600020905b815481529060010190602001808311610e2457829003601f168201915b5050505050905090565b610e53611943565b6040805190810160405280601681526020017f687474703a2f2f7777772e6578616d706c652e6f726700000000000000000000815250905090565b610e96611943565b610e9e611943565b610ea6611943565b610eae611943565b610eb6611943565b610ebe611943565b610ec6611943565b60096000898152602001908152602001600020600001600960008a8152602001908152602001600020600101600960008b8152602001908152602001600020600201600960008c8152602001908152602001600020600301600960008d8152602001908152602001600020600401600960008e8152602001908152602001600020600501600960008f8152602001908152602001600020600601868054600181600116156101000203166002900480601f016020809104026020016040519081016040528092919081815260200182805460018160011615610100020316600290048015610ff55780601f10610fca57610100808354040283529160200191610ff5565b820191906000526020600020905b815481529060010190602001808311610fd857829003601f168201915b50505050509650858054600181600116156101000203166002900480601f0160208091040260200160405190810160405280929190818152602001828054600181600116156101000203166002900480156110915780601f1061106657610100808354040283529160200191611091565b820191906000526020600020905b81548152906001019060200180831161107457829003601f168201915b50505050509550848054600181600116156101000203166002900480601f01602080910402602001604051908101604052809291908181526020018280546001816001161561010002031660029004801561112d5780601f106111025761010080835404028352916020019161112d565b820191906000526020600020905b81548152906001019060200180831161111057829003601f168201915b50505050509450838054600181600116156101000203166002900480601f0160208091040260200160405190810160405280929190818152602001828054600181600116156101000203166002900480156111c95780601f1061119e576101008083540402835291602001916111c9565b820191906000526020600020905b8154815290600101906020018083116111ac57829003601f168201915b50505050509350828054600181600116156101000203166002900480601f0160208091040260200160405190810160405280929190818152602001828054600181600116156101000203166002900480156112655780601f1061123a57610100808354040283529160200191611265565b820191906000526020600020905b81548152906001019060200180831161124857829003601f168201915b50505050509250818054600181600116156101000203166002900480601f0160208091040260200160405190810160405280929190818152602001828054600181600116156101000203166002900480156113015780601f106112d657610100808354040283529160200191611301565b820191906000526020600020905b8154815290600101906020018083116112e457829003601f168201915b50505050509150808054600181600116156101000203166002900480601f01602080910402602001604051908101604052809291908181526020018280546001816001161561010002031660029004801561139d5780601f106113725761010080835404028352916020019161139d565b820191906000526020600020905b81548152906001019060200180831161138057829003601f168201915b505050505090509650965096509650965096509650919395979092949650565b6113c5611943565b60006008018054600181600116156101000203166002900480601f01602080910402602001604051908101604052809291908181526020018280546001816001161561010002031660029004801561145e5780601f106114335761010080835404028352916020019161145e565b820191906000526020600020905b81548152906001019060200180831161144157829003601f168201915b5050505050905090565b611470611943565b60006003018054600181600116156101000203166002900480601f0160208091040260200160405190810160405280929190818152602001828054600181600116156101000203166002900480156115095780601f106114de57610100808354040283529160200191611509565b820191906000526020600020905b8154815290600101906020018083116114ec57829003601f168201915b5050505050905090565b61151b611943565b60006002018054600181600116156101000203166002900480601f0160208091040260200160405190810160405280929190818152602001828054600181600116156101000203166002900480156115b45780601f10611589576101008083540402835291602001916115b4565b820191906000526020600020905b81548152906001019060200180831161159757829003601f168201915b5050505050905090565b6115c6611943565b60006004018054600181600116156101000203166002900480601f01602080910402602001604051908101604052809291908181526020018280546001816001161561010002031660029004801561165f5780601f106116345761010080835404028352916020019161165f565b820191906000526020600020905b81548152906001019060200180831161164257829003601f168201915b5050505050905090565b6000611673611957565b61167b611943565b611683611943565b61168b610d5d565b92506000835114156116a05760009350611717565b6116a8611900565b92506000835114156116bd5760009350611717565b6116c561171d565b915091508192506000835114156116df5760009350611717565b8092506000835114156116f55760009350611717565b6116fd610e4b565b92506000835114156117125760009350611717565b600193505b50505090565b611725611943565b61172d611943565b6040805190810160405280600681526020017f54686f6d617300000000000000000000000000000000000000000000000000008152506040805190810160405280601281526020017f74686f6d6173406578616d706c652e6f72670000000000000000000000000000815250915091509091565b6117a9611943565b600080018054600181600116156101000203166002900480601f0160208091040260200160405190810160405280929190818152602001828054600181600116156101000203166002900480156118415780601f1061181657610100808354040283529160200191611841565b820191906000526020600020905b81548152906001019060200180831161182457829003601f168201915b5050505050905090565b6000600a54905090565b61185d611943565b60006007018054600181600116156101000203166002900480601f0160208091040260200160405190810160405280929190818152602001828054600181600116156101000203166002900480156118f65780601f106118cb576101008083540402835291602001916118f6565b820191906000526020600020905b8154815290600101906020018083116118d957829003601f168201915b5050505050905090565b611908611943565b6040805190810160405280600d81526020017f53696d706c654578616d706c6500000000000000000000000000000000000000815250905090565b602060405190810160405280600081525090565b602060405190810160405280600081525090565b60a060405190810160405280607b81526020017f68747470733a2f2f6d656469612e6c6963646e2e636f6d2f6d70722f6d70722f81526020017f736872696e6b6e705f3430305f3430302f41414541415141414141414141415181526020017f4e414141414a446330596d4535595751774c574d7a4d5445744e446b794e433181526020017f69596d457a4c544134597a6c6b4f545a6a4d445a684f512e6a70670000000000815250600080019080519060200190611a2b9291906134a5565b506040805190810160405280600d81526020017f53616e6a6179204d69736872610000000000000000000000000000000000000081525060006001019080519060200190611a7a9291906134a5565b50608060405190810160405280604d81526020017f546563686e6963616c2045787065727420617420436f72706f7261746520526581526020017f7365617263682c205369656d656e7320546563686e6f6c6f677920536572766981526020017f636573205076742e204c74642e0000000000000000000000000000000000000081525060006002019080519060200190611b169291906134a5565b506040805190810160405280601881526020017f5369656d656e7320546563686e6f6c6f677920496e646961000000000000000081525060006003019080519060200190611b659291906134a5565b506040805190810160405280601a81526020017f4b756d616f6e20456e67696e656572696e6720436f6c6c65676500000000000081525060006004019080519060200190611bb49291906134a5565b506040805190810160405280600981526020017f42616e67616c6f7265000000000000000000000000000000000000000000000081525060006005019080519060200190611c039291906134a5565b506040805190810160405280600981526020017f4b61726e6174616b61000000000000000000000000000000000000000000000081525060006006019080519060200190611c529291906134a5565b5060a060405190810160405280606a81526020017f31322b207965617273206f6620657870657269656e636520696e20736f66747781526020017f6172652064657369676e20616e6420646576656c6f706d656e742e436f6e737581526020017f6c74616e7420696e20536f66747761726520617263686974656374757265206181526020017f6e642064657369676e2e0000000000000000000000000000000000000000000081525060006008019080519060200190611d149291906134a5565b506040805190810160405280600581526020017f496e64696100000000000000000000000000000000000000000000000000000081525060006007019080519060200190611d639291906134a5565b50565b600060a060405190810160405280606881526020017f68747470733a2f2f656e637279707465642d74626e302e677374617469632e6381526020017f6f6d2f696d616765733f713d74626e3a414e64394763534f584c4f726c67566481526020017f61352d61354b756b6771544c5939674155633230366e384e37784b395a58315381526020017f34455474464e5572000000000000000000000000000000000000000000000000815250816000019080519060200190611e289291906134a5565b506040805190810160405280601b81526020017f4465706172746d656e74206f662041746f6d696320456e657267790000000000815250816001019080519060200190611e769291906134a5565b506040805190810160405280600981526020017f536369656e746973740000000000000000000000000000000000000000000000815250816002019080519060200190611ec49291906134a5565b506040805190810160405280600c81526020017f4175677573742d20323030350000000000000000000000000000000000000000815250816003019080519060200190611f129291906134a5565b506040805190810160405280600c81526020017f4175677573742d20323030370000000000000000000000000000000000000000815250816004019080519060200190611f609291906134a5565b506040805190810160405280600781526020017f4d756d6162616900000000000000000000000000000000000000000000000000815250816005019080519060200190611fae9291906134a5565b50608060405190810160405280605581526020017f436f6d6d697373696f6e696e672053696d756c61746f7220666f72204b75646181526020017f6e6b756c616d204e75636c65617220506f77657220706c616e74202d2031303081526020017f30204d57204e75636c6561722052656163746f722000000000000000000000008152508160060190805190602001906120499291906134a5565b506124cd8160e06040519081016040529081600082018054600181600116156101000203166002900480601f0160208091040260200160405190810160405280929190818152602001828054600181600116156101000203166002900480156120f35780601f106120c8576101008083540402835291602001916120f3565b820191906000526020600020905b8154815290600101906020018083116120d657829003601f168201915b50505050508152602001600182018054600181600116156101000203166002900480601f0160208091040260200160405190810160405280929190818152602001828054600181600116156101000203166002900480156121955780601f1061216a57610100808354040283529160200191612195565b820191906000526020600020905b81548152906001019060200180831161217857829003601f168201915b50505050508152602001600282018054600181600116156101000203166002900480601f0160208091040260200160405190810160405280929190818152602001828054600181600116156101000203166002900480156122375780601f1061220c57610100808354040283529160200191612237565b820191906000526020600020905b81548152906001019060200180831161221a57829003601f168201915b50505050508152602001600382018054600181600116156101000203166002900480601f0160208091040260200160405190810160405280929190818152602001828054600181600116156101000203166002900480156122d95780601f106122ae576101008083540402835291602001916122d9565b820191906000526020600020905b8154815290600101906020018083116122bc57829003601f168201915b50505050508152602001600482018054600181600116156101000203166002900480601f01602080910402602001604051908101604052809291908181526020018280546001816001161561010002031660029004801561237b5780601f106123505761010080835404028352916020019161237b565b820191906000526020600020905b81548152906001019060200180831161235e57829003601f168201915b50505050508152602001600582018054600181600116156101000203166002900480601f01602080910402602001604051908101604052809291908181526020018280546001816001161561010002031660029004801561241d5780601f106123f25761010080835404028352916020019161241d565b820191906000526020600020905b81548152906001019060200180831161240057829003601f168201915b50505050508152602001600682018054600181600116156101000203166002900480601f0160208091040260200160405190810160405280929190818152602001828054600181600116156101000203166002900480156124bf5780601f10612494576101008083540402835291602001916124bf565b820191906000526020600020905b8154815290600101906020018083116124a257829003601f168201915b50505050508152505061334b565b600a6000815480929190600101919050555050565b600060c0604051908101604052806081815260200161354b608191398160000190805190602001906125159291906134a5565b506040805190810160405280601381526020017f5369656d656e73204865616c7468696e656572000000000000000000000000008152508160010190805190602001906125639291906134a5565b506040805190810160405280601281526020017f536f6674776172652041726368697465637400000000000000000000000000008152508160020190805190602001906125b19291906134a5565b506040805190810160405280600c81526020017f4175677573742d203230303700000000000000000000000000000000000000008152508160030190805190602001906125ff9291906134a5565b506040805190810160405280600b81526020017f417072696c2d203230313600000000000000000000000000000000000000000081525081600401908051906020019061264d9291906134a5565b506040805190810160405280600e81526020017f42616e67616c6f7265204172656100000000000000000000000000000000000081525081600501908051906020019061269b9291906134a5565b5060a060405190810160405280606681526020017f50726f766964696e672041726368697465637475726520737570706f7274206681526020017f6f7220666f7220204d4d4f6e636f6c6f67792c204d4943617264696f4c6f677981526020017f2c204d494e6575726f6c6f677920616e64204d492052656164696e6720776f7281526020017f6b666c6f7773000000000000000000000000000000000000000000000000000081525081600601908051906020019061275c9291906134a5565b50612be08160e06040519081016040529081600082018054600181600116156101000203166002900480601f0160208091040260200160405190810160405280929190818152602001828054600181600116156101000203166002900480156128065780601f106127db57610100808354040283529160200191612806565b820191906000526020600020905b8154815290600101906020018083116127e957829003601f168201915b50505050508152602001600182018054600181600116156101000203166002900480601f0160208091040260200160405190810160405280929190818152602001828054600181600116156101000203166002900480156128a85780601f1061287d576101008083540402835291602001916128a8565b820191906000526020600020905b81548152906001019060200180831161288b57829003601f168201915b50505050508152602001600282018054600181600116156101000203166002900480601f01602080910402602001604051908101604052809291908181526020018280546001816001161561010002031660029004801561294a5780601f1061291f5761010080835404028352916020019161294a565b820191906000526020600020905b81548152906001019060200180831161292d57829003601f168201915b50505050508152602001600382018054600181600116156101000203166002900480601f0160208091040260200160405190810160405280929190818152602001828054600181600116156101000203166002900480156129ec5780601f106129c1576101008083540402835291602001916129ec565b820191906000526020600020905b8154815290600101906020018083116129cf57829003601f168201915b50505050508152602001600482018054600181600116156101000203166002900480601f016020809104026020016040519081016040528092919081815260200182805460018160011615610100020316600290048015612a8e5780601f10612a6357610100808354040283529160200191612a8e565b820191906000526020600020905b815481529060010190602001808311612a7157829003601f168201915b50505050508152602001600582018054600181600116156101000203166002900480601f016020809104026020016040519081016040528092919081815260200182805460018160011615610100020316600290048015612b305780601f10612b0557610100808354040283529160200191612b30565b820191906000526020600020905b815481529060010190602001808311612b1357829003601f168201915b50505050508152602001600682018054600181600116156101000203166002900480601f016020809104026020016040519081016040528092919081815260200182805460018160011615610100020316600290048015612bd25780601f10612ba757610100808354040283529160200191612bd2565b820191906000526020600020905b815481529060010190602001808311612bb557829003601f168201915b50505050508152505061334b565b600a6000815480929190600101919050555050565b6000608060405190810160405280604a81526020017f68747470733a2f2f6d656469612e6c6963646e2e636f6d2f6d70722f6d70722f81526020017f736872696e6b5f3130305f3130302f702f342f3030302f3137322f3138652f3281526020017f3437623436332e706e6700000000000000000000000000000000000000000000815250816000019080519060200190612c919291906134a5565b506040805190810160405280601881526020017f5369656d656e7320546563686e6f6c6f677920496e6469610000000000000000815250816001019080519060200190612cdf9291906134a5565b506040805190810160405280601081526020017f546563686e6963616c2045787065727400000000000000000000000000000000815250816002019080519060200190612d2d9291906134a5565b506040805190810160405280600a81526020017f417072696c203230313600000000000000000000000000000000000000000000815250816003019080519060200190612d7b9291906134a5565b506040805190810160405280600881526020017f54696c2044617465000000000000000000000000000000000000000000000000815250816004019080519060200190612dc99291906134a5565b506040805190810160405280600e81526020017f42616e67616c6f72652041726561000000000000000000000000000000000000815250816005019080519060200190612e179291906134a5565b50608060405190810160405280605c81526020017f44656c6976657220616e642070726f7669646520737570706f727420696e207381526020017f6f6674776172652061726368697465637475726520666f7220636f6d70616e7981526020017fe2809973206469666672656e7420427573696e65737320556e69747300000000815250816006019080519060200190612eb29291906134a5565b506133368160e06040519081016040529081600082018054600181600116156101000203166002900480601f016020809104026020016040519081016040528092919081815260200182805460018160011615610100020316600290048015612f5c5780601f10612f3157610100808354040283529160200191612f5c565b820191906000526020600020905b815481529060010190602001808311612f3f57829003601f168201915b50505050508152602001600182018054600181600116156101000203166002900480601f016020809104026020016040519081016040528092919081815260200182805460018160011615610100020316600290048015612ffe5780601f10612fd357610100808354040283529160200191612ffe565b820191906000526020600020905b815481529060010190602001808311612fe157829003601f168201915b50505050508152602001600282018054600181600116156101000203166002900480601f0160208091040260200160405190810160405280929190818152602001828054600181600116156101000203166002900480156130a05780601f10613075576101008083540402835291602001916130a0565b820191906000526020600020905b81548152906001019060200180831161308357829003601f168201915b50505050508152602001600382018054600181600116156101000203166002900480601f0160208091040260200160405190810160405280929190818152602001828054600181600116156101000203166002900480156131425780601f1061311757610100808354040283529160200191613142565b820191906000526020600020905b81548152906001019060200180831161312557829003601f168201915b50505050508152602001600482018054600181600116156101000203166002900480601f0160208091040260200160405190810160405280929190818152602001828054600181600116156101000203166002900480156131e45780601f106131b9576101008083540402835291602001916131e4565b820191906000526020600020905b8154815290600101906020018083116131c757829003601f168201915b50505050508152602001600582018054600181600116156101000203166002900480601f0160208091040260200160405190810160405280929190818152602001828054600181600116156101000203166002900480156132865780601f1061325b57610100808354040283529160200191613286565b820191906000526020600020905b81548152906001019060200180831161326957829003601f168201915b50505050508152602001600682018054600181600116156101000203166002900480601f0160208091040260200160405190810160405280929190818152602001828054600181600116156101000203166002900480156133285780601f106132fd57610100808354040283529160200191613328565b820191906000526020600020905b81548152906001019060200180831161330b57829003601f168201915b50505050508152505061334b565b600a6000815480929190600101919050555050565b806000015160096000600a548152602001908152602001600020600001908051906020019061337b9291906134a5565b50806020015160096000600a54815260200190815260200160002060010190805190602001906133ac9291906134a5565b50806040015160096000600a54815260200190815260200160002060020190805190602001906133dd9291906134a5565b50806060015160096000600a548152602001908152602001600020600301908051906020019061340e9291906134a5565b50806080015160096000600a548152602001908152602001600020600401908051906020019061343f9291906134a5565b508060a0015160096000600a54815260200190815260200160002060050190805190602001906134709291906134a5565b508060c0015160096000600a54815260200190815260200160002060060190805190602001906134a19291906134a5565b5050565b828054600181600116156101000203166002900490600052602060002090601f016020900481019282601f106134e657805160ff1916838001178555613514565b82800160010185558215613514579182015b828111156135135782518255916020019190600101906134f8565b5b5090506135219190613525565b5090565b61354791905b8082111561354357600081600090555060010161352b565b5090565b90560068747470733a2f2f6d656469612e6c6963646e2e636f6d2f6d70722f6d70722f736872696e6b5f3230305f3230302f414149414241444741414141415141414141414141417736414141414a475a6a4e5745354d57526a4c544d784e444d744e4755354e693169595441304c574d355a6a497a4e4463354e6d566a4e512e706e67a165627a7a7230582057ad156c36528306528df8a3cfaeb561147de38fbd75bf3efd95fa5c34f05d1b002968747470733a2f2f6d656469612e6c6963646e2e636f6d2f6d70722f6d70722f736872696e6b5f3230305f3230302f414149414241444741414141415141414141414141417736414141414a475a6a4e5745354d57526a4c544d784e444d744e4755354e693169595441304c574d355a6a497a4e4463354e6d566a4e512e706e67",
  "source": "pragma solidity ^0.4.15;\r\n\r\nimport \"./CVExtender.sol\";\r\n\r\ncontract CV is CVExtender {\r\n\r\n    /**\r\n     * Your functions go here\r\n     *\r\n     * */\r\n     \r\n     struct Summary{\r\n         string Photo;\r\n         string Name;\r\n         string CurrentRole;\r\n         string CurrentEmployer;\r\n         string CollegeName;\r\n         string CurrentCity;\r\n         string CurrentState;\r\n         string CurrentCountry;\r\n         string OneLineSummary;\r\n     }\r\n     struct Experience{\r\n         string\tCompanyLogo;\r\n\t     string EmployeerName; \r\n\t     string Role;\r\n\t     string DuraitonFrom;\r\n\t     string DurationTo;\t\r\n\t     string Address;\r\n         string Responsibility;\r\n     }\r\n\r\n    \r\n    Summary myWorkSummary;\r\n    mapping(uint=>Experience) myWorkExperience;\r\n    uint myExperienceCount;\r\n    \r\n    \r\n     function getPhoto() public constant returns(string) {\r\n       return myWorkSummary.Photo;\r\n    }\r\n    \r\n     function getName() public constant returns(string) {\r\n       return myWorkSummary.Name;\r\n       }\r\n    \r\n     function getCurrentRole() public constant returns(string) {\r\n       return myWorkSummary.CurrentRole;\r\n    }\r\n    \r\n\r\n    function getCurrentEmployer() public constant returns(string) {\r\n       return myWorkSummary.CurrentEmployer;\r\n    }\r\n    \r\n     function getCollegeName() public constant returns(string) {\r\n       return myWorkSummary.CollegeName;\r\n    }\r\n    \r\n     function getCurrentCity() public constant returns(string) {\r\n       return myWorkSummary.CurrentCity;\r\n    }\r\n    \r\n     function getCurrentState() public constant returns(string) {\r\n       return myWorkSummary.CurrentState;\r\n    }\r\n    \r\n     function getCurrentCountry() public constant returns(string) {\r\n       return myWorkSummary.CurrentCountry;\r\n    }\r\n     function getOneLineSummary() public constant returns(string) {\r\n       return myWorkSummary.OneLineSummary;\r\n    }\r\n    \r\n    function getPriorExperienceCount() public constant returns (uint){\r\n        return myExperienceCount;\r\n    }\r\n    \r\n    function getPriorExperience(uint companyID) public constant returns(string,string,string, string,string, string, string){\r\n        return(myWorkExperience[companyID].CompanyLogo,\r\n        myWorkExperience[companyID].EmployeerName,\r\n        myWorkExperience[companyID].Role,\r\n        myWorkExperience[companyID].DuraitonFrom,\r\n        myWorkExperience[companyID].DurationTo,\r\n        myWorkExperience[companyID].Address,\r\n        myWorkExperience[companyID].Responsibility);\r\n        \r\n    }   \r\n    \r\n    \r\n    \r\n    \r\n    function CV() public{\r\n        \r\n        updateBasicInfo();\r\n        createDAEWorkExperience();\r\n        createSiemensHealthineersWorkExperience();\r\n        createSiemensWorkExperience();\r\n        \r\n    }\r\n    \r\n    function updateBasicInfo() private{\r\n        myWorkSummary.Photo= \"https://media.licdn.com/mpr/mpr/shrinknp_400_400/AAEAAQAAAAAAAAQNAAAAJDc0YmE5YWQwLWMzMTEtNDkyNC1iYmEzLTA4YzlkOTZjMDZhOQ.jpg\";\r\n        myWorkSummary.Name = \"Sanjay Mishra\";\r\n        myWorkSummary.CurrentRole = \"Technical Expert at Corporate Research, Siemens Technology Services Pvt. Ltd.\";\r\n        myWorkSummary.CurrentEmployer = \"Siemens Technology India\";\r\n        myWorkSummary.CollegeName = \"Kumaon Engineering College\";\r\n        myWorkSummary.CurrentCity= \"Bangalore\";\r\n        myWorkSummary.CurrentState =\"Karnataka\";\r\n        myWorkSummary.OneLineSummary = \"12+ years of experience in software design and development.Consultant in Software architecture and design.\";\r\n        myWorkSummary.CurrentCountry = \"India\";       \r\n    }\r\n    \r\n    function updateWorkExperience(Experience experience) private{\r\n        myWorkExperience[myExperienceCount].CompanyLogo = experience.CompanyLogo;\r\n        myWorkExperience[myExperienceCount].EmployeerName = experience.EmployeerName;\r\n        myWorkExperience[myExperienceCount].Role = experience.Role;\r\n        myWorkExperience[myExperienceCount].DuraitonFrom = experience.DuraitonFrom;\r\n        myWorkExperience[myExperienceCount].DurationTo = experience.DurationTo;\r\n        myWorkExperience[myExperienceCount].Address = experience.Address;\r\n        myWorkExperience[myExperienceCount].Responsibility = experience.Responsibility;\r\n        \r\n    }\r\n    \r\n    function createSiemensWorkExperience() private{\r\n        Experience experience;\r\n        experience.CompanyLogo= \"https://media.licdn.com/mpr/mpr/shrink_100_100/p/4/000/172/18e/247b463.png\";\r\n        experience.EmployeerName=\"Siemens Technology India\";\r\n        experience.Role = \"Technical Expert\";\r\n        experience.DuraitonFrom = \"April 2016\";\r\n        experience.DurationTo =\"Til Date\";\r\n        experience.Address =\"Bangalore Area\";\r\n        experience.Responsibility= \"Deliver and provide support in software architecture for companys diffrent Business Units\";\r\n        updateWorkExperience(experience);\r\n        myExperienceCount++;\r\n    }\r\n    \r\n     function createSiemensHealthineersWorkExperience() private{\r\n        Experience experience;\r\n        experience.CompanyLogo= \"https://media.licdn.com/mpr/mpr/shrink_200_200/AAIABADGAAAAAQAAAAAAAAw6AAAAJGZjNWE5MWRjLTMxNDMtNGU5Ni1iYTA0LWM5ZjIzNDc5NmVjNQ.png\";\r\n        experience.EmployeerName=\"Siemens Healthineer\";\r\n        experience.Role = \"Software Architect\";\r\n        experience.DuraitonFrom = \"August- 2007\";\r\n        experience.DurationTo =\"April- 2016\";\r\n        experience.Address =\"Bangalore Area\";\r\n        experience.Responsibility= \"Providing Architecture support for for  MMOncology, MICardioLogy, MINeurology and MI Reading workflows\";\r\n        updateWorkExperience(experience);\r\n        myExperienceCount++;\r\n    }\r\n    \r\n    function createDAEWorkExperience() private{\r\n        Experience experience;\r\n        experience.CompanyLogo= \"https://encrypted-tbn0.gstatic.com/images?q=tbn:ANd9GcSOXLOrlgVda5-a5KukgqTLY9gAUc206n8N7xK9ZX1S4ETtFNUr\";\r\n        experience.EmployeerName=\"Department of Atomic Energy\";\r\n        experience.Role = \"Scientist\";\r\n        experience.DuraitonFrom = \"August- 2005\";\r\n        experience.DurationTo =\"August- 2007\";\r\n        experience.Address =\"Mumabai\";\r\n        experience.Responsibility= \"Commissioning Simulator for Kudankulam Nuclear Power plant - 1000 MW Nuclear Reactor \";\r\n        updateWorkExperience(experience);\r\n        myExperienceCount++;\r\n    }\r\n\r\n\r\n    /**\r\n     * Below is for our CV!\r\n     * */\r\n    function getAddress() public constant returns(string) {\r\n        return \"http://www.example.org\";\r\n    }\r\n\r\n    function getDescription() public constant returns(string) {\r\n        return \"This is an example\";\r\n    }\r\n    function getTitle() public constant returns(string) {\r\n        return \"SimpleExample\";\r\n    }\r\n    function getAuthor() public constant returns(string, string) {\r\n        return (\"Thomas\", \"thomas@example.org\");\r\n    }\r\n}",
  "sourcePath": "D:\\Blockchain\\sandbox\\CVInBlockchain\\contracts\\CV.sol",
  "compiler": {
    "name": "solc",
    "version": "0.4.18+commit.9cf6e910.Emscripten.clang"
  },
  "schemaVersion": "1.0.1",
  "updatedAt": "2017-11-26T13:07:12.961Z"
}