{
  "contractName": "CV",
  "abi": [
    {
      "constant": true,
      "inputs": [],
      "name": "getCurrentCity",
      "outputs": [
        {
          "name": "",
          "type": "string"
        }
      ],
      "payable": false,
      "stateMutability": "view",
      "type": "function"
    },
    {
      "constant": true,
      "inputs": [],
      "name": "getSkillCount",
      "outputs": [
        {
          "name": "",
          "type": "uint256"
        }
      ],
      "payable": false,
      "stateMutability": "view",
      "type": "function"
    },
    {
      "constant": true,
      "inputs": [],
      "name": "getName",
      "outputs": [
        {
          "name": "",
          "type": "string"
        }
      ],
      "payable": false,
      "stateMutability": "view",
      "type": "function"
    },
    {
      "constant": true,
      "inputs": [],
      "name": "getDescription",
      "outputs": [
        {
          "name": "",
          "type": "string"
        }
      ],
      "payable": false,
      "stateMutability": "view",
      "type": "function"
    },
    {
      "constant": true,
      "inputs": [],
      "name": "getCurrentState",
      "outputs": [
        {
          "name": "",
          "type": "string"
        }
      ],
      "payable": false,
      "stateMutability": "view",
      "type": "function"
    },
    {
      "constant": true,
      "inputs": [
        {
          "name": "companyID",
          "type": "uint256"
        }
      ],
      "name": "getAddress",
      "outputs": [
        {
          "name": "",
          "type": "string"
        },
        {
          "name": "",
          "type": "string"
        },
        {
          "name": "",
          "type": "string"
        },
        {
          "name": "",
          "type": "string"
        },
        {
          "name": "",
          "type": "string"
        },
        {
          "name": "",
          "type": "string"
        },
        {
          "name": "",
          "type": "string"
        }
      ],
      "payable": false,
      "stateMutability": "view",
      "type": "function"
    },
    {
      "constant": true,
      "inputs": [
        {
          "name": "companyID",
          "type": "uint256"
        }
      ],
      "name": "getPriorExperience",
      "outputs": [
        {
          "name": "",
          "type": "string"
        },
        {
          "name": "",
          "type": "string"
        },
        {
          "name": "",
          "type": "string"
        },
        {
          "name": "",
          "type": "string"
        },
        {
          "name": "",
          "type": "string"
        },
        {
          "name": "",
          "type": "string"
        },
        {
          "name": "",
          "type": "string"
        }
      ],
      "payable": false,
      "stateMutability": "view",
      "type": "function"
    },
    {
      "constant": true,
      "inputs": [],
      "name": "getOneLineSummary",
      "outputs": [
        {
          "name": "",
          "type": "string"
        }
      ],
      "payable": false,
      "stateMutability": "view",
      "type": "function"
    },
    {
      "constant": true,
      "inputs": [],
      "name": "getCurrentEmployer",
      "outputs": [
        {
          "name": "",
          "type": "string"
        }
      ],
      "payable": false,
      "stateMutability": "view",
      "type": "function"
    },
    {
      "constant": true,
      "inputs": [],
      "name": "getCurrentRole",
      "outputs": [
        {
          "name": "",
          "type": "string"
        }
      ],
      "payable": false,
      "stateMutability": "view",
      "type": "function"
    },
    {
      "constant": true,
      "inputs": [],
      "name": "getCollegeName",
      "outputs": [
        {
          "name": "",
          "type": "string"
        },
        {
          "name": "",
          "type": "string"
        }
      ],
      "payable": false,
      "stateMutability": "view",
      "type": "function"
    },
    {
      "constant": true,
      "inputs": [],
      "name": "getAuthor",
      "outputs": [
        {
          "name": "",
          "type": "string"
        },
        {
          "name": "",
          "type": "string"
        }
      ],
      "payable": false,
      "stateMutability": "view",
      "type": "function"
    },
    {
      "constant": true,
      "inputs": [],
      "name": "getPhoto",
      "outputs": [
        {
          "name": "",
          "type": "string"
        }
      ],
      "payable": false,
      "stateMutability": "view",
      "type": "function"
    },
    {
      "constant": true,
      "inputs": [
        {
          "name": "skillID",
          "type": "uint256"
        }
      ],
      "name": "getSkilSet",
      "outputs": [
        {
          "name": "",
          "type": "string"
        },
        {
          "name": "",
          "type": "string"
        },
        {
          "name": "",
          "type": "string"
        }
      ],
      "payable": false,
      "stateMutability": "view",
      "type": "function"
    },
    {
      "constant": true,
      "inputs": [],
      "name": "getPriorExperienceCount",
      "outputs": [
        {
          "name": "",
          "type": "uint256"
        }
      ],
      "payable": false,
      "stateMutability": "view",
      "type": "function"
    },
    {
      "inputs": [],
      "payable": false,
      "stateMutability": "view",
      "type": "function",
      "constant": true,
      "name": "getCurrentCountry",
      "outputs": [
        {
          "name": "",
          "type": "string"
        }
      ]
    },
    {
      "constant": true,
      "inputs": [],
      "name": "getTitle",
      "outputs": [
        {
          "name": "",
          "type": "string"
        }
      ],
      "payable": false,
      "stateMutability": "view",
      "type": "function"
    },
    {
      "inputs": [],
      "payable": false,
      "stateMutability": "nonpayable",
      "type": "constructor"
    }
  ],
  "bytecode": "0x606060405234156200001057600080fd5b6200002e620000ac6401000000000262001c63176401000000009004565b6200004c620004b9640100000000026200205e176401000000009004565b6200006a6200076964010000000002620022f6176401000000009004565b62000088620009b16401000000000262002525176401000000009004565b620000a662000c3b6401000000000262002797176401000000009004565b6200149e565b60a060405190810160405280607b81526020017f68747470733a2f2f6d656469612e6c6963646e2e636f6d2f6d70722f6d70722f81526020017f736872696e6b6e705f3430305f3430302f41414541415141414141414141415181526020017f4e414141414a446330596d4535595751774c574d7a4d5445744e446b794e433181526020017f69596d457a4c544134597a6c6b4f545a6a4d445a684f512e6a706700000000008152506000800190805190602001906200016e9291906200132b565b506040805190810160405280600d81526020017f53616e6a6179204d69736872610000000000000000000000000000000000000081525060006001019080519060200190620001bf9291906200132b565b50608060405190810160405280604d81526020017f546563686e6963616c2045787065727420617420436f72706f7261746520526581526020017f7365617263682c205369656d656e7320546563686e6f6c6f677920536572766981526020017f636573205076742e204c74642e00000000000000000000000000000000000000815250600060020190805190602001906200025d9291906200132b565b506040805190810160405280601881526020017f5369656d656e7320546563686e6f6c6f677920496e646961000000000000000081525060006003019080519060200190620002ae9291906200132b565b506040805190810160405280601a81526020017f4b756d616f6e20456e67696e656572696e6720436f6c6c65676500000000000081525060006004019080519060200190620002ff9291906200132b565b506040805190810160405280600981526020017f42616e67616c6f7265000000000000000000000000000000000000000000000081525060006005019080519060200190620003509291906200132b565b506040805190810160405280600981526020017f4b61726e6174616b61000000000000000000000000000000000000000000000081525060006006019080519060200190620003a19291906200132b565b5060a060405190810160405280606a81526020017f31322b207965617273206f6620657870657269656e636520696e20736f66747781526020017f6172652064657369676e20616e6420646576656c6f706d656e742e436f6e737581526020017f6c74616e7420696e20536f66747761726520617263686974656374757265206181526020017f6e642064657369676e2e0000000000000000000000000000000000000000000081525060006008019080519060200190620004659291906200132b565b506040805190810160405280600581526020017f496e64696100000000000000000000000000000000000000000000000000000081525060006007019080519060200190620004b69291906200132b565b50565b620004c3620013b2565b60a060405190810160405280606881526020017f68747470733a2f2f656e637279707465642d74626e302e677374617469632e6381526020017f6f6d2f696d616765733f713d74626e3a414e64394763534f584c4f726c67566481526020017f61352d61354b756b6771544c5939674155633230366e384e37784b395a58315381526020017f34455474464e557200000000000000000000000000000000000000000000000081525081600001819052506040805190810160405280601b81526020017f4465706172746d656e74206f662041746f6d696320456e65726779000000000081525081602001819052506040805190810160405280600981526020017f536369656e74697374000000000000000000000000000000000000000000000081525081604001819052506040805190810160405280600c81526020017f4175677573742d2032303035000000000000000000000000000000000000000081525081606001819052506040805190810160405280600c81526020017f4175677573742d2032303037000000000000000000000000000000000000000081525081608001819052506040805190810160405280600781526020017f4d756d61626169000000000000000000000000000000000000000000000000008152508160a00181905250608060405190810160405280605581526020017f436f6d6d697373696f6e696e672053696d756c61746f7220666f72204b75646181526020017f6e6b756c616d204e75636c65617220506f77657220706c616e74202d2031303081526020017f30204d57204e75636c6561722052656163746f722000000000000000000000008152508160c00181905250620007548162000c9764010000000002620027b1176401000000009004565b600b6000815480929190600101919050555050565b62000773620013b2565b60c06040519081016040528060818152602001620044996081913981600001819052506040805190810160405280601381526020017f5369656d656e73204865616c7468696e6565720000000000000000000000000081525081602001819052506040805190810160405280601281526020017f536f66747761726520417263686974656374000000000000000000000000000081525081604001819052506040805190810160405280600c81526020017f4175677573742d2032303037000000000000000000000000000000000000000081525081606001819052506040805190810160405280600b81526020017f417072696c2d203230313600000000000000000000000000000000000000000081525081608001819052506040805190810160405280600e81526020017f42616e67616c6f726520417265610000000000000000000000000000000000008152508160a0018190525060a060405190810160405280606681526020017f50726f766964696e672041726368697465637475726520737570706f7274206681526020017f6f7220666f7220204d4d4f6e636f6c6f67792c204d4943617264696f4c6f677981526020017f2c204d494e6575726f6c6f677920616e64204d492052656164696e6720776f7281526020017f6b666c6f777300000000000000000000000000000000000000000000000000008152508160c001819052506200099c8162000c9764010000000002620027b1176401000000009004565b600b6000815480929190600101919050555050565b620009bb620013b2565b608060405190810160405280604a81526020017f68747470733a2f2f6d656469612e6c6963646e2e636f6d2f6d70722f6d70722f81526020017f736872696e6b5f3130305f3130302f702f342f3030302f3137322f3138652f3281526020017f3437623436332e706e670000000000000000000000000000000000000000000081525081600001819052506040805190810160405280601881526020017f5369656d656e7320546563686e6f6c6f677920496e646961000000000000000081525081602001819052506040805190810160405280601081526020017f546563686e6963616c204578706572740000000000000000000000000000000081525081604001819052506040805190810160405280600a81526020017f417072696c20323031360000000000000000000000000000000000000000000081525081606001819052506040805190810160405280600881526020017f54696c204461746500000000000000000000000000000000000000000000000081525081608001819052506040805190810160405280600e81526020017f42616e67616c6f726520417265610000000000000000000000000000000000008152508160a00181905250608060405190810160405280605c81526020017f44656c6976657220616e642070726f7669646520737570706f727420696e207381526020017f6f6674776172652061726368697465637475726520666f7220636f6d70616e7981526020017fe2809973206469666672656e7420427573696e65737320556e697473000000008152508160c0018190525062000c268162000c9764010000000002620027b1176401000000009004565b600b6000815480929190600101919050555050565b62000c5962000dff640100000000026200290b176401000000009004565b62000c7762000f6b6401000000000262002a5f176401000000009004565b62000c95620010d76401000000000262002bb3176401000000009004565b565b806000015160096000600b548152602001908152602001600020600001908051906020019062000cc99291906200132b565b50806020015160096000600b548152602001908152602001600020600101908051906020019062000cfc9291906200132b565b50806040015160096000600b548152602001908152602001600020600201908051906020019062000d2f9291906200132b565b50806060015160096000600b548152602001908152602001600020600301908051906020019062000d629291906200132b565b50806080015160096000600b548152602001908152602001600020600401908051906020019062000d959291906200132b565b508060a0015160096000600b548152602001908152602001600020600501908051906020019062000dc89291906200132b565b508060c0015160096000600b548152602001908152602001600020600601908051906020019062000dfb9291906200132b565b5050565b62000e0962001428565b6040805190810160405280601581526020017f50726f6772616d6d696e67204c616e67756167657300000000000000000000008152508160000181905250606060405190810160405280603481526020017f43232c4a6176615363726970742c20416e67756c6172204a532c204e6f64652081526020017f4a532c20507974686f6e2c20536f6c69646974790000000000000000000000008152508160200181905250608060405190810160405280604681526020017f4578706572742d204920616d206b656570206f6e20696d70726f76696e67206f81526020017f6e20746865736520736b696c6c7320627574202043616e20477569646520507281526020017f6f6a656374730000000000000000000000000000000000000000000000000000815250816040018190525062000f56816200128f6401000000000262002d53176401000000009004565b600c6000815480929190600101919050555050565b62000f7562001428565b6040805190810160405280600c81526020017f546563686e6f6c6f6769657300000000000000000000000000000000000000008152508160000181905250606060405190810160405280603581526020017f5765622c20426c6f636b436861696e2c204d616368696e65204c6561726e696e81526020017f672c204465764f70732c204f50432d55412c494f5400000000000000000000008152508160200181905250608060405190810160405280604681526020017f4578706572742d204920616d206b656570206f6e20696d70726f76696e67206f81526020017f6e20746865736520736b696c6c7320627574202043616e20477569646520507281526020017f6f6a6563747300000000000000000000000000000000000000000000000000008152508160400181905250620010c2816200128f6401000000000262002d53176401000000009004565b600c6000815480929190600101919050555050565b620010e162001428565b6040805190810160405280601781526020017f41726368697465637475726520616e642044657369676e000000000000000000815250816000018190525060a060405190810160405280606981526020017f536f667477617265204172636869746563747572652c20526571756972656d6581526020017f6e7420456e67696e656572696e672c2044657369676e2c204465766f70732c2081526020017f5465616d20456d706f7765726d656e742c20456e746572707269736869702c2081526020017f4f776e65727368697000000000000000000000000000000000000000000000008152508160200181905250608060405190810160405280604681526020017f4578706572742d204920616d206b656570206f6e20696d70726f76696e67206f81526020017f6e20746865736520736b696c6c7320627574202043616e20477569646520507281526020017f6f6a65637473000000000000000000000000000000000000000000000000000081525081604001819052506200127a816200128f6401000000000262002d53176401000000009004565b600c6000815480929190600101919050555050565b8060000151600a6000600c5481526020019081526020016000206000019080519060200190620012c19291906200132b565b508060200151600a6000600c5481526020019081526020016000206001019080519060200190620012f49291906200132b565b508060400151600a6000600c5481526020019081526020016000206002019080519060200190620013279291906200132b565b5050565b828054600181600116156101000203166002900490600052602060002090601f016020900481019282601f106200136e57805160ff19168380011785556200139f565b828001600101855582156200139f579182015b828111156200139e57825182559160200191906001019062001381565b5b509050620013ae919062001462565b5090565b60e060405190810160405280620013c86200148a565b8152602001620013d76200148a565b8152602001620013e66200148a565b8152602001620013f56200148a565b8152602001620014046200148a565b8152602001620014136200148a565b8152602001620014226200148a565b81525090565b6060604051908101604052806200143e6200148a565b81526020016200144d6200148a565b81526020016200145c6200148a565b81525090565b6200148791905b808211156200148357600081600090555060010162001469565b5090565b90565b602060405190810160405280600081525090565b612feb80620014ae6000396000f3006060604052600436106100f1576000357c0100000000000000000000000000000000000000000000000000000000900463ffffffff16806301efb7a4146100f657806305f53b291461018457806317d7de7c146101ad5780631a0925411461023b578063378aa701146102c957806338cc4831146103575780634245e6c9146103e55780635027f633146107095780635d5fa2b71461079757806365231307146108255780636c08283f146108b3578063a5faa12514610941578063b2ec005e14610a3b578063ba42fb8d14610ac9578063ba9fa17714610c3d578063f173c2e214610c66578063ff3c1a8f14610cf4575b600080fd5b341561010157600080fd5b610109610d82565b6040518080602001828103825283818151815260200191508051906020019080838360005b8381101561014957808201518184015260208101905061012e565b50505050905090810190601f1680156101765780820380516001836020036101000a031916815260200191505b509250505060405180910390f35b341561018f57600080fd5b610197610e2d565b6040518082815260200191505060405180910390f35b34156101b857600080fd5b6101c0610e37565b6040518080602001828103825283818151815260200191508051906020019080838360005b838110156102005780820151818401526020810190506101e5565b50505050905090810190601f16801561022d5780820380516001836020036101000a031916815260200191505b509250505060405180910390f35b341561024657600080fd5b61024e610ee2565b6040518080602001828103825283818151815260200191508051906020019080838360005b8381101561028e578082015181840152602081019050610273565b50505050905090810190601f1680156102bb5780820380516001836020036101000a031916815260200191505b509250505060405180910390f35b34156102d457600080fd5b6102dc610f25565b6040518080602001828103825283818151815260200191508051906020019080838360005b8381101561031c578082015181840152602081019050610301565b50505050905090810190601f1680156103495780820380516001836020036101000a031916815260200191505b509250505060405180910390f35b341561036257600080fd5b61036a610fd0565b6040518080602001828103825283818151815260200191508051906020019080838360005b838110156103aa57808201518184015260208101905061038f565b50505050905090810190601f1680156103d75780820380516001836020036101000a031916815260200191505b509250505060405180910390f35b34156103f057600080fd5b6104066004808035906020019091905050611013565b604051808060200180602001806020018060200180602001806020018060200188810388528f818151815260200191508051906020019080838360005b8381101561045e578082015181840152602081019050610443565b50505050905090810190601f16801561048b5780820380516001836020036101000a031916815260200191505b5088810387528e818151815260200191508051906020019080838360005b838110156104c45780820151818401526020810190506104a9565b50505050905090810190601f1680156104f15780820380516001836020036101000a031916815260200191505b5088810386528d818151815260200191508051906020019080838360005b8381101561052a57808201518184015260208101905061050f565b50505050905090810190601f1680156105575780820380516001836020036101000a031916815260200191505b5088810385528c818151815260200191508051906020019080838360005b83811015610590578082015181840152602081019050610575565b50505050905090810190601f1680156105bd5780820380516001836020036101000a031916815260200191505b5088810384528b818151815260200191508051906020019080838360005b838110156105f65780820151818401526020810190506105db565b50505050905090810190601f1680156106235780820380516001836020036101000a031916815260200191505b5088810383528a818151815260200191508051906020019080838360005b8381101561065c578082015181840152602081019050610641565b50505050905090810190601f1680156106895780820380516001836020036101000a031916815260200191505b50888103825289818151815260200191508051906020019080838360005b838110156106c25780820151818401526020810190506106a7565b50505050905090810190601f1680156106ef5780820380516001836020036101000a031916815260200191505b509e50505050505050505050505050505060405180910390f35b341561071457600080fd5b61071c611542565b6040518080602001828103825283818151815260200191508051906020019080838360005b8381101561075c578082015181840152602081019050610741565b50505050905090810190601f1680156107895780820380516001836020036101000a031916815260200191505b509250505060405180910390f35b34156107a257600080fd5b6107aa6115ed565b6040518080602001828103825283818151815260200191508051906020019080838360005b838110156107ea5780820151818401526020810190506107cf565b50505050905090810190601f1680156108175780820380516001836020036101000a031916815260200191505b509250505060405180910390f35b341561083057600080fd5b610838611698565b6040518080602001828103825283818151815260200191508051906020019080838360005b8381101561087857808201518184015260208101905061085d565b50505050905090810190601f1680156108a55780820380516001836020036101000a031916815260200191505b509250505060405180910390f35b34156108be57600080fd5b6108c6611743565b6040518080602001828103825283818151815260200191508051906020019080838360005b838110156109065780820151818401526020810190506108eb565b50505050905090810190601f1680156109335780820380516001836020036101000a031916815260200191505b509250505060405180910390f35b341561094c57600080fd5b6109546117ee565b604051808060200180602001838103835285818151815260200191508051906020019080838360005b8381101561099857808201518184015260208101905061097d565b50505050905090810190601f1680156109c55780820380516001836020036101000a031916815260200191505b50838103825284818151815260200191508051906020019080838360005b838110156109fe5780820151818401526020810190506109e3565b50505050905090810190601f168015610a2b5780820380516001836020036101000a031916815260200191505b5094505050505060405180910390f35b3415610a4657600080fd5b610a4e611872565b6040518080602001828103825283818151815260200191508051906020019080838360005b83811015610a8e578082015181840152602081019050610a73565b50505050905090810190601f168015610abb5780820380516001836020036101000a031916815260200191505b509250505060405180910390f35b3415610ad457600080fd5b610aea600480803590602001909190505061191c565b60405180806020018060200180602001848103845287818151815260200191508051906020019080838360005b83811015610b32578082015181840152602081019050610b17565b50505050905090810190601f168015610b5f5780820380516001836020036101000a031916815260200191505b50848103835286818151815260200191508051906020019080838360005b83811015610b98578082015181840152602081019050610b7d565b50505050905090810190601f168015610bc55780820380516001836020036101000a031916815260200191505b50848103825285818151815260200191508051906020019080838360005b83811015610bfe578082015181840152602081019050610be3565b50505050905090810190601f168015610c2b5780820380516001836020036101000a031916815260200191505b50965050505050505060405180910390f35b3415610c4857600080fd5b610c50611b57565b6040518082815260200191505060405180910390f35b3415610c7157600080fd5b610c79611b61565b6040518080602001828103825283818151815260200191508051906020019080838360005b83811015610cb9578082015181840152602081019050610c9e565b50505050905090810190601f168015610ce65780820380516001836020036101000a031916815260200191505b509250505060405180910390f35b3415610cff57600080fd5b610d07611c0c565b6040518080602001828103825283818151815260200191508051906020019080838360005b83811015610d47578082015181840152602081019050610d2c565b50505050905090810190601f168015610d745780820380516001836020036101000a031916815260200191505b509250505060405180910390f35b610d8a611c4f565b60006005018054600181600116156101000203166002900480601f016020809104026020016040519081016040528092919081815260200182805460018160011615610100020316600290048015610e235780601f10610df857610100808354040283529160200191610e23565b820191906000526020600020905b815481529060010190602001808311610e0657829003601f168201915b5050505050905090565b6000600c54905090565b610e3f611c4f565b60006001018054600181600116156101000203166002900480601f016020809104026020016040519081016040528092919081815260200182805460018160011615610100020316600290048015610ed85780601f10610ead57610100808354040283529160200191610ed8565b820191906000526020600020905b815481529060010190602001808311610ebb57829003601f168201915b5050505050905090565b610eea611c4f565b6040805190810160405280601281526020017f5468697320697320616e206578616d706c650000000000000000000000000000815250905090565b610f2d611c4f565b60006006018054600181600116156101000203166002900480601f016020809104026020016040519081016040528092919081815260200182805460018160011615610100020316600290048015610fc65780601f10610f9b57610100808354040283529160200191610fc6565b820191906000526020600020905b815481529060010190602001808311610fa957829003601f168201915b5050505050905090565b610fd8611c4f565b6040805190810160405280601681526020017f687474703a2f2f7777772e6578616d706c652e6f726700000000000000000000815250905090565b61101b611c4f565b611023611c4f565b61102b611c4f565b611033611c4f565b61103b611c4f565b611043611c4f565b61104b611c4f565b60096000898152602001908152602001600020600001600960008a8152602001908152602001600020600101600960008b8152602001908152602001600020600201600960008c8152602001908152602001600020600301600960008d8152602001908152602001600020600401600960008e8152602001908152602001600020600501600960008f8152602001908152602001600020600601868054600181600116156101000203166002900480601f01602080910402602001604051908101604052809291908181526020018280546001816001161561010002031660029004801561117a5780601f1061114f5761010080835404028352916020019161117a565b820191906000526020600020905b81548152906001019060200180831161115d57829003601f168201915b50505050509650858054600181600116156101000203166002900480601f0160208091040260200160405190810160405280929190818152602001828054600181600116156101000203166002900480156112165780601f106111eb57610100808354040283529160200191611216565b820191906000526020600020905b8154815290600101906020018083116111f957829003601f168201915b50505050509550848054600181600116156101000203166002900480601f0160208091040260200160405190810160405280929190818152602001828054600181600116156101000203166002900480156112b25780601f10611287576101008083540402835291602001916112b2565b820191906000526020600020905b81548152906001019060200180831161129557829003601f168201915b50505050509450838054600181600116156101000203166002900480601f01602080910402602001604051908101604052809291908181526020018280546001816001161561010002031660029004801561134e5780601f106113235761010080835404028352916020019161134e565b820191906000526020600020905b81548152906001019060200180831161133157829003601f168201915b50505050509350828054600181600116156101000203166002900480601f0160208091040260200160405190810160405280929190818152602001828054600181600116156101000203166002900480156113ea5780601f106113bf576101008083540402835291602001916113ea565b820191906000526020600020905b8154815290600101906020018083116113cd57829003601f168201915b50505050509250818054600181600116156101000203166002900480601f0160208091040260200160405190810160405280929190818152602001828054600181600116156101000203166002900480156114865780601f1061145b57610100808354040283529160200191611486565b820191906000526020600020905b81548152906001019060200180831161146957829003601f168201915b50505050509150808054600181600116156101000203166002900480601f0160208091040260200160405190810160405280929190818152602001828054600181600116156101000203166002900480156115225780601f106114f757610100808354040283529160200191611522565b820191906000526020600020905b81548152906001019060200180831161150557829003601f168201915b505050505090509650965096509650965096509650919395979092949650565b61154a611c4f565b60006008018054600181600116156101000203166002900480601f0160208091040260200160405190810160405280929190818152602001828054600181600116156101000203166002900480156115e35780601f106115b8576101008083540402835291602001916115e3565b820191906000526020600020905b8154815290600101906020018083116115c657829003601f168201915b5050505050905090565b6115f5611c4f565b60006003018054600181600116156101000203166002900480601f01602080910402602001604051908101604052809291908181526020018280546001816001161561010002031660029004801561168e5780601f106116635761010080835404028352916020019161168e565b820191906000526020600020905b81548152906001019060200180831161167157829003601f168201915b5050505050905090565b6116a0611c4f565b60006002018054600181600116156101000203166002900480601f0160208091040260200160405190810160405280929190818152602001828054600181600116156101000203166002900480156117395780601f1061170e57610100808354040283529160200191611739565b820191906000526020600020905b81548152906001019060200180831161171c57829003601f168201915b5050505050905090565b61174b611c4f565b60006004018054600181600116156101000203166002900480601f0160208091040260200160405190810160405280929190818152602001828054600181600116156101000203166002900480156117e45780601f106117b9576101008083540402835291602001916117e4565b820191906000526020600020905b8154815290600101906020018083116117c757829003601f168201915b5050505050905090565b6117f6611c4f565b6117fe611c4f565b6040805190810160405280600681526020017f54686f6d617300000000000000000000000000000000000000000000000000008152506040805190810160405280601281526020017f74686f6d6173406578616d706c652e6f72670000000000000000000000000000815250915091509091565b61187a611c4f565b600080018054600181600116156101000203166002900480601f0160208091040260200160405190810160405280929190818152602001828054600181600116156101000203166002900480156119125780601f106118e757610100808354040283529160200191611912565b820191906000526020600020905b8154815290600101906020018083116118f557829003601f168201915b5050505050905090565b611924611c4f565b61192c611c4f565b611934611c4f565b600a6000858152602001908152602001600020600001600a6000868152602001908152602001600020600101600a6000878152602001908152602001600020600201828054600181600116156101000203166002900480601f016020809104026020016040519081016040528092919081815260200182805460018160011615610100020316600290048015611a0b5780601f106119e057610100808354040283529160200191611a0b565b820191906000526020600020905b8154815290600101906020018083116119ee57829003601f168201915b50505050509250818054600181600116156101000203166002900480601f016020809104026020016040519081016040528092919081815260200182805460018160011615610100020316600290048015611aa75780601f10611a7c57610100808354040283529160200191611aa7565b820191906000526020600020905b815481529060010190602001808311611a8a57829003601f168201915b50505050509150808054600181600116156101000203166002900480601f016020809104026020016040519081016040528092919081815260200182805460018160011615610100020316600290048015611b435780601f10611b1857610100808354040283529160200191611b43565b820191906000526020600020905b815481529060010190602001808311611b2657829003601f168201915b505050505090509250925092509193909250565b6000600b54905090565b611b69611c4f565b60006007018054600181600116156101000203166002900480601f016020809104026020016040519081016040528092919081815260200182805460018160011615610100020316600290048015611c025780601f10611bd757610100808354040283529160200191611c02565b820191906000526020600020905b815481529060010190602001808311611be557829003601f168201915b5050505050905090565b611c14611c4f565b6040805190810160405280600d81526020017f53696d706c654578616d706c6500000000000000000000000000000000000000815250905090565b602060405190810160405280600081525090565b60a060405190810160405280607b81526020017f68747470733a2f2f6d656469612e6c6963646e2e636f6d2f6d70722f6d70722f81526020017f736872696e6b6e705f3430305f3430302f41414541415141414141414141415181526020017f4e414141414a446330596d4535595751774c574d7a4d5445744e446b794e433181526020017f69596d457a4c544134597a6c6b4f545a6a4d445a684f512e6a70670000000000815250600080019080519060200190611d23929190612de9565b506040805190810160405280600d81526020017f53616e6a6179204d69736872610000000000000000000000000000000000000081525060006001019080519060200190611d72929190612de9565b50608060405190810160405280604d81526020017f546563686e6963616c2045787065727420617420436f72706f7261746520526581526020017f7365617263682c205369656d656e7320546563686e6f6c6f677920536572766981526020017f636573205076742e204c74642e0000000000000000000000000000000000000081525060006002019080519060200190611e0e929190612de9565b506040805190810160405280601881526020017f5369656d656e7320546563686e6f6c6f677920496e646961000000000000000081525060006003019080519060200190611e5d929190612de9565b506040805190810160405280601a81526020017f4b756d616f6e20456e67696e656572696e6720436f6c6c65676500000000000081525060006004019080519060200190611eac929190612de9565b506040805190810160405280600981526020017f42616e67616c6f7265000000000000000000000000000000000000000000000081525060006005019080519060200190611efb929190612de9565b506040805190810160405280600981526020017f4b61726e6174616b61000000000000000000000000000000000000000000000081525060006006019080519060200190611f4a929190612de9565b5060a060405190810160405280606a81526020017f31322b207965617273206f6620657870657269656e636520696e20736f66747781526020017f6172652064657369676e20616e6420646576656c6f706d656e742e436f6e737581526020017f6c74616e7420696e20536f66747761726520617263686974656374757265206181526020017f6e642064657369676e2e000000000000000000000000000000000000000000008152506000600801908051906020019061200c929190612de9565b506040805190810160405280600581526020017f496e6469610000000000000000000000000000000000000000000000000000008152506000600701908051906020019061205b929190612de9565b50565b612066612e69565b60a060405190810160405280606881526020017f68747470733a2f2f656e637279707465642d74626e302e677374617469632e6381526020017f6f6d2f696d616765733f713d74626e3a414e64394763534f584c4f726c67566481526020017f61352d61354b756b6771544c5939674155633230366e384e37784b395a58315381526020017f34455474464e557200000000000000000000000000000000000000000000000081525081600001819052506040805190810160405280601b81526020017f4465706172746d656e74206f662041746f6d696320456e65726779000000000081525081602001819052506040805190810160405280600981526020017f536369656e74697374000000000000000000000000000000000000000000000081525081604001819052506040805190810160405280600c81526020017f4175677573742d2032303035000000000000000000000000000000000000000081525081606001819052506040805190810160405280600c81526020017f4175677573742d2032303037000000000000000000000000000000000000000081525081608001819052506040805190810160405280600781526020017f4d756d61626169000000000000000000000000000000000000000000000000008152508160a00181905250608060405190810160405280605581526020017f436f6d6d697373696f6e696e672053696d756c61746f7220666f72204b75646181526020017f6e6b756c616d204e75636c65617220506f77657220706c616e74202d2031303081526020017f30204d57204e75636c6561722052656163746f722000000000000000000000008152508160c001819052506122e1816127b1565b600b6000815480929190600101919050555050565b6122fe612e69565b60c06040519081016040528060818152602001612f3f6081913981600001819052506040805190810160405280601381526020017f5369656d656e73204865616c7468696e6565720000000000000000000000000081525081602001819052506040805190810160405280601281526020017f536f66747761726520417263686974656374000000000000000000000000000081525081604001819052506040805190810160405280600c81526020017f4175677573742d2032303037000000000000000000000000000000000000000081525081606001819052506040805190810160405280600b81526020017f417072696c2d203230313600000000000000000000000000000000000000000081525081608001819052506040805190810160405280600e81526020017f42616e67616c6f726520417265610000000000000000000000000000000000008152508160a0018190525060a060405190810160405280606681526020017f50726f766964696e672041726368697465637475726520737570706f7274206681526020017f6f7220666f7220204d4d4f6e636f6c6f67792c204d4943617264696f4c6f677981526020017f2c204d494e6575726f6c6f677920616e64204d492052656164696e6720776f7281526020017f6b666c6f777300000000000000000000000000000000000000000000000000008152508160c00181905250612510816127b1565b600b6000815480929190600101919050555050565b61252d612e69565b608060405190810160405280604a81526020017f68747470733a2f2f6d656469612e6c6963646e2e636f6d2f6d70722f6d70722f81526020017f736872696e6b5f3130305f3130302f702f342f3030302f3137322f3138652f3281526020017f3437623436332e706e670000000000000000000000000000000000000000000081525081600001819052506040805190810160405280601881526020017f5369656d656e7320546563686e6f6c6f677920496e646961000000000000000081525081602001819052506040805190810160405280601081526020017f546563686e6963616c204578706572740000000000000000000000000000000081525081604001819052506040805190810160405280600a81526020017f417072696c20323031360000000000000000000000000000000000000000000081525081606001819052506040805190810160405280600881526020017f54696c204461746500000000000000000000000000000000000000000000000081525081608001819052506040805190810160405280600e81526020017f42616e67616c6f726520417265610000000000000000000000000000000000008152508160a00181905250608060405190810160405280605c81526020017f44656c6976657220616e642070726f7669646520737570706f727420696e207381526020017f6f6674776172652061726368697465637475726520666f7220636f6d70616e7981526020017fe2809973206469666672656e7420427573696e65737320556e697473000000008152508160c00181905250612782816127b1565b600b6000815480929190600101919050555050565b61279f61290b565b6127a7612a5f565b6127af612bb3565b565b806000015160096000600b54815260200190815260200160002060000190805190602001906127e1929190612de9565b50806020015160096000600b5481526020019081526020016000206001019080519060200190612812929190612de9565b50806040015160096000600b5481526020019081526020016000206002019080519060200190612843929190612de9565b50806060015160096000600b5481526020019081526020016000206003019080519060200190612874929190612de9565b50806080015160096000600b54815260200190815260200160002060040190805190602001906128a5929190612de9565b508060a0015160096000600b54815260200190815260200160002060050190805190602001906128d6929190612de9565b508060c0015160096000600b5481526020019081526020016000206006019080519060200190612907929190612de9565b5050565b612913612ed1565b6040805190810160405280601581526020017f50726f6772616d6d696e67204c616e67756167657300000000000000000000008152508160000181905250606060405190810160405280603481526020017f43232c4a6176615363726970742c20416e67756c6172204a532c204e6f64652081526020017f4a532c20507974686f6e2c20536f6c69646974790000000000000000000000008152508160200181905250608060405190810160405280604681526020017f4578706572742d204920616d206b656570206f6e20696d70726f76696e67206f81526020017f6e20746865736520736b696c6c7320627574202043616e20477569646520507281526020017f6f6a6563747300000000000000000000000000000000000000000000000000008152508160400181905250612a4a81612d53565b600c6000815480929190600101919050555050565b612a67612ed1565b6040805190810160405280600c81526020017f546563686e6f6c6f6769657300000000000000000000000000000000000000008152508160000181905250606060405190810160405280603581526020017f5765622c20426c6f636b436861696e2c204d616368696e65204c6561726e696e81526020017f672c204465764f70732c204f50432d55412c494f5400000000000000000000008152508160200181905250608060405190810160405280604681526020017f4578706572742d204920616d206b656570206f6e20696d70726f76696e67206f81526020017f6e20746865736520736b696c6c7320627574202043616e20477569646520507281526020017f6f6a6563747300000000000000000000000000000000000000000000000000008152508160400181905250612b9e81612d53565b600c6000815480929190600101919050555050565b612bbb612ed1565b6040805190810160405280601781526020017f41726368697465637475726520616e642044657369676e000000000000000000815250816000018190525060a060405190810160405280606981526020017f536f667477617265204172636869746563747572652c20526571756972656d6581526020017f6e7420456e67696e656572696e672c2044657369676e2c204465766f70732c2081526020017f5465616d20456d706f7765726d656e742c20456e746572707269736869702c2081526020017f4f776e65727368697000000000000000000000000000000000000000000000008152508160200181905250608060405190810160405280604681526020017f4578706572742d204920616d206b656570206f6e20696d70726f76696e67206f81526020017f6e20746865736520736b696c6c7320627574202043616e20477569646520507281526020017f6f6a6563747300000000000000000000000000000000000000000000000000008152508160400181905250612d3e81612d53565b600c6000815480929190600101919050555050565b8060000151600a6000600c5481526020019081526020016000206000019080519060200190612d83929190612de9565b508060200151600a6000600c5481526020019081526020016000206001019080519060200190612db4929190612de9565b508060400151600a6000600c5481526020019081526020016000206002019080519060200190612de5929190612de9565b5050565b828054600181600116156101000203166002900490600052602060002090601f016020900481019282601f10612e2a57805160ff1916838001178555612e58565b82800160010185558215612e58579182015b82811115612e57578251825591602001919060010190612e3c565b5b509050612e659190612f05565b5090565b60e060405190810160405280612e7d612f2a565b8152602001612e8a612f2a565b8152602001612e97612f2a565b8152602001612ea4612f2a565b8152602001612eb1612f2a565b8152602001612ebe612f2a565b8152602001612ecb612f2a565b81525090565b606060405190810160405280612ee5612f2a565b8152602001612ef2612f2a565b8152602001612eff612f2a565b81525090565b612f2791905b80821115612f23576000816000905550600101612f0b565b5090565b90565b602060405190810160405280600081525090560068747470733a2f2f6d656469612e6c6963646e2e636f6d2f6d70722f6d70722f736872696e6b5f3230305f3230302f414149414241444741414141415141414141414141417736414141414a475a6a4e5745354d57526a4c544d784e444d744e4755354e693169595441304c574d355a6a497a4e4463354e6d566a4e512e706e67a165627a7a723058205b02b4da9fdd7d006f02b24b8767fc880a7dde266c052a358eb3f9c7a8502ec0002968747470733a2f2f6d656469612e6c6963646e2e636f6d2f6d70722f6d70722f736872696e6b5f3230305f3230302f414149414241444741414141415141414141414141417736414141414a475a6a4e5745354d57526a4c544d784e444d744e4755354e693169595441304c574d355a6a497a4e4463354e6d566a4e512e706e67",
  "source": "pragma solidity ^0.4.15;\r\n\r\n//import \"./CVExtender.sol\";\r\n\r\ncontract CV  {\r\n\r\n    /**\r\n     * Your functions go here\r\n     *\r\n     * */\r\n     \r\n     struct Summary{\r\n         string Photo;\r\n         string Name;\r\n         string CurrentRole;\r\n         string CurrentEmployer;\r\n         string CollegeName;\r\n         string CurrentCity;\r\n         string CurrentState;\r\n         string CurrentCountry;\r\n         string OneLineSummary;\r\n     }\r\n     struct Experience{\r\n         string\tCompanyLogo;\r\n\t     string EmployeerName; \r\n\t     string Role;\r\n\t     string DuraitonFrom;\r\n\t     string DurationTo;\t\r\n\t     string Address;\r\n         string Responsibility;\r\n     }\r\n     \r\n     struct SkillSet{\r\n         string SkillName;\r\n         string SkillExperience;\r\n         string Maturity;\r\n         \r\n     }\r\n    \r\n\r\n    \r\n    Summary myWorkSummary;\r\n    mapping(uint=>Experience) myWorkExperience;\r\n    mapping(uint=> SkillSet) mySkillSet;\r\n    uint myExperienceCount;\r\n    uint mySkillCount;\r\n    \r\n    \r\n     function getPhoto() public constant returns(string) {\r\n       return myWorkSummary.Photo;\r\n    }\r\n    \r\n     function getName() public constant returns(string) {\r\n       return myWorkSummary.Name;\r\n       }\r\n    \r\n     function getCurrentRole() public constant returns(string) {\r\n       return myWorkSummary.CurrentRole;\r\n    }\r\n    \r\n\r\n    function getCurrentEmployer() public constant returns(string) {\r\n       return myWorkSummary.CurrentEmployer;\r\n    }\r\n    \r\n     function getCollegeName() public constant returns(string) {\r\n       return myWorkSummary.CollegeName;\r\n    }\r\n    \r\n     function getCurrentCity() public constant returns(string) {\r\n       return myWorkSummary.CurrentCity;\r\n    }\r\n    \r\n     function getCurrentState() public constant returns(string) {\r\n       return myWorkSummary.CurrentState;\r\n    }\r\n    \r\n     function getCurrentCountry() public constant returns(string) {\r\n       return myWorkSummary.CurrentCountry;\r\n    }\r\n     function getOneLineSummary() public constant returns(string) {\r\n       return myWorkSummary.OneLineSummary;\r\n    }\r\n    \r\n    function getPriorExperienceCount() public constant returns (uint){\r\n        return myExperienceCount;\r\n    }\r\n    \r\n    function getPriorExperience(uint companyID) public constant returns(string,string,string, string,string, string, string){\r\n        return(myWorkExperience[companyID].CompanyLogo,\r\n        myWorkExperience[companyID].EmployeerName,\r\n        myWorkExperience[companyID].Role,\r\n        myWorkExperience[companyID].DuraitonFrom,\r\n        myWorkExperience[companyID].DurationTo,\r\n        myWorkExperience[companyID].Address,\r\n        myWorkExperience[companyID].Responsibility);\r\n    }\r\n    \r\n    function getSkillCount() public constant returns(uint){\r\n        return mySkillCount;\r\n    }\r\n    \r\n    function getSkilSet(uint skillID) public constant returns(string, string, string){\r\n        return(mySkillSet[skillID].SkillName,mySkillSet[skillID].SkillExperience,mySkillSet[skillID].Maturity);\r\n    }\r\n    \r\n    \r\n    \r\n    \r\n    function CV() public{\r\n        \r\n        updateBasicInfo();\r\n        createDAEWorkExperience();\r\n        createSiemensHealthineersWorkExperience();\r\n        createSiemensWorkExperience();\r\n        createSkillSet();\r\n        \r\n    }\r\n    \r\n    function updateBasicInfo() private{\r\n        myWorkSummary.Photo= \"https://media.licdn.com/mpr/mpr/shrinknp_400_400/AAEAAQAAAAAAAAQNAAAAJDc0YmE5YWQwLWMzMTEtNDkyNC1iYmEzLTA4YzlkOTZjMDZhOQ.jpg\";\r\n        myWorkSummary.Name = \"Sanjay Mishra\";\r\n        myWorkSummary.CurrentRole = \"Technical Expert at Corporate Research, Siemens Technology Services Pvt. Ltd.\";\r\n        myWorkSummary.CurrentEmployer = \"Siemens Technology India\";\r\n        myWorkSummary.CollegeName = \"Kumaon Engineering College\";\r\n        myWorkSummary.CurrentCity= \"Bangalore\";\r\n        myWorkSummary.CurrentState =\"Karnataka\";\r\n        myWorkSummary.OneLineSummary = \"12+ years of experience in software design and development.Consultant in Software architecture and design.\";\r\n        myWorkSummary.CurrentCountry = \"India\";       \r\n    }\r\n    \r\n    function updateWorkExperience(Experience experience) private{\r\n        myWorkExperience[myExperienceCount].CompanyLogo = experience.CompanyLogo;\r\n        myWorkExperience[myExperienceCount].EmployeerName = experience.EmployeerName;\r\n        myWorkExperience[myExperienceCount].Role = experience.Role;\r\n        myWorkExperience[myExperienceCount].DuraitonFrom = experience.DuraitonFrom;\r\n        myWorkExperience[myExperienceCount].DurationTo = experience.DurationTo;\r\n        myWorkExperience[myExperienceCount].Address = experience.Address;\r\n        myWorkExperience[myExperienceCount].Responsibility = experience.Responsibility;\r\n        \r\n    }\r\n    \r\n    function createSiemensWorkExperience() private{\r\n        Experience memory experience;\r\n        experience.CompanyLogo= \"https://media.licdn.com/mpr/mpr/shrink_100_100/p/4/000/172/18e/247b463.png\";\r\n        experience.EmployeerName=\"Siemens Technology India\";\r\n        experience.Role = \"Technical Expert\";\r\n        experience.DuraitonFrom = \"April 2016\";\r\n        experience.DurationTo =\"Til Date\";\r\n        experience.Address =\"Bangalore Area\";\r\n        experience.Responsibility= \"Deliver and provide support in software architecture for companys diffrent Business Units\";\r\n        updateWorkExperience(experience);\r\n        myExperienceCount++;\r\n    }\r\n    \r\n     function createSiemensHealthineersWorkExperience() private{\r\n        Experience memory experience;\r\n        experience.CompanyLogo= \"https://media.licdn.com/mpr/mpr/shrink_200_200/AAIABADGAAAAAQAAAAAAAAw6AAAAJGZjNWE5MWRjLTMxNDMtNGU5Ni1iYTA0LWM5ZjIzNDc5NmVjNQ.png\";\r\n        experience.EmployeerName=\"Siemens Healthineer\";\r\n        experience.Role = \"Software Architect\";\r\n        experience.DuraitonFrom = \"August- 2007\";\r\n        experience.DurationTo =\"April- 2016\";\r\n        experience.Address =\"Bangalore Area\";\r\n        experience.Responsibility= \"Providing Architecture support for for  MMOncology, MICardioLogy, MINeurology and MI Reading workflows\";\r\n        updateWorkExperience(experience);\r\n        myExperienceCount++;\r\n    }\r\n    \r\n    function createDAEWorkExperience() private{\r\n        Experience memory experience;\r\n        experience.CompanyLogo= \"https://encrypted-tbn0.gstatic.com/images?q=tbn:ANd9GcSOXLOrlgVda5-a5KukgqTLY9gAUc206n8N7xK9ZX1S4ETtFNUr\";\r\n        experience.EmployeerName=\"Department of Atomic Energy\";\r\n        experience.Role = \"Scientist\";\r\n        experience.DuraitonFrom = \"August- 2005\";\r\n        experience.DurationTo =\"August- 2007\";\r\n        experience.Address =\"Mumabai\";\r\n        experience.Responsibility= \"Commissioning Simulator for Kudankulam Nuclear Power plant - 1000 MW Nuclear Reactor \";\r\n        updateWorkExperience(experience);\r\n        myExperienceCount++;\r\n    }\r\n    \r\n    function createSkillSet() private {\r\n     CreateProgrammingSkillSet();\r\n     CreateTechnologySkillSet();\r\n     CreateArchitectureAndDesignSkillSet();\r\n     \r\n    }\r\n    \r\n    function updateSkillSet(SkillSet skillset) private{\r\n        mySkillSet[mySkillCount].SkillName = skillset.SkillName;\r\n        mySkillSet[mySkillCount].SkillExperience = skillset.SkillExperience;\r\n        mySkillSet[mySkillCount].Maturity = skillset.Maturity;\r\n    }\r\n    \r\n    function CreateProgrammingSkillSet() private{\r\n        SkillSet memory skillSet;\r\n        skillSet.SkillName= \"Programming Languages\";\r\n        skillSet.SkillExperience=\"C#,JavaScript, Angular JS, Node JS, Python, Solidity\";\r\n        skillSet.Maturity = \"Expert- I am keep on improving on these skills but  Can Guide Projects\";\r\n        updateSkillSet(skillSet);\r\n        mySkillCount++;\r\n    }\r\n    \r\n    function CreateTechnologySkillSet() private{\r\n        SkillSet memory skillSet;\r\n        skillSet.SkillName= \"Technologies\";\r\n        skillSet.SkillExperience=\"Web, BlockChain, Machine Learning, DevOps, OPC-UA,IOT\";\r\n        skillSet.Maturity = \"Expert- I am keep on improving on these skills but  Can Guide Projects\";\r\n        updateSkillSet(skillSet);\r\n        mySkillCount++;\r\n    }\r\n    \r\n    function CreateArchitectureAndDesignSkillSet() private{\r\n        SkillSet memory skillSet;\r\n        skillSet.SkillName= \"Architecture and Design\";\r\n        skillSet.SkillExperience=\"Software Architecture, Requirement Engineering, Design, Devops, Team Empowerment, Enterpriship, Ownership\";\r\n        skillSet.Maturity = \"Expert- I am keep on improving on these skills but  Can Guide Projects\";\r\n        updateSkillSet(skillSet);\r\n        mySkillCount++;\r\n    }\r\n    \r\n\r\n\r\n    /**\r\n     * Below is for our CV!\r\n     * */\r\n    function getAddress() public constant returns(string) {\r\n        return \"http://www.example.org\";\r\n    }\r\n\r\n    function getDescription() public constant returns(string) {\r\n        return \"This is an example\";\r\n    }\r\n    function getTitle() public constant returns(string) {\r\n        return \"SimpleExample\";\r\n    }\r\n    function getAuthor() public constant returns(string, string) {\r\n        return (\"Thomas\", \"thomas@example.org\");\r\n    }\r\n}",
  "sourcePath": "D:\\Blockchain\\sandbox\\sandbox\\BlockChain\\CVInBlockchain\\contracts\\CV.sol",
  "compiler": {
    "name": "solc",
    "version": "0.4.18+commit.9cf6e910.Emscripten.clang"
  },
  "schemaVersion": "1.0.1",
  "updatedAt": "2017-12-02T09:39:46.017Z"
}