{
  "contractName": "CV",
  "abi": [
    {
      "constant": true,
      "inputs": [],
      "name": "getCurrentCity",
      "outputs": [
        {
          "name": "",
          "type": "string"
        }
      ],
      "payable": false,
      "stateMutability": "view",
      "type": "function"
    },
    {
      "constant": true,
      "inputs": [],
      "name": "getName",
      "outputs": [
        {
          "name": "",
          "type": "string"
        }
      ],
      "payable": false,
      "stateMutability": "view",
      "type": "function"
    },
    {
      "constant": true,
      "inputs": [],
      "name": "getDescription",
      "outputs": [
        {
          "name": "",
          "type": "string"
        }
      ],
      "payable": false,
      "stateMutability": "view",
      "type": "function"
    },
    {
      "constant": true,
      "inputs": [],
      "name": "getCurrentState",
      "outputs": [
        {
          "name": "",
          "type": "string"
        }
      ],
      "payable": false,
      "stateMutability": "view",
      "type": "function"
    },
    {
      "constant": true,
      "inputs": [],
      "name": "getAddress",
      "outputs": [
        {
          "name": "",
          "type": "string"
        }
      ],
      "payable": false,
      "stateMutability": "view",
      "type": "function"
    },
    {
      "constant": true,
      "inputs": [
        {
          "name": "companyID",
          "type": "uint256"
        }
      ],
      "name": "getPriorExperience",
      "outputs": [
        {
          "name": "",
          "type": "string"
        },
        {
          "name": "",
          "type": "string"
        },
        {
          "name": "",
          "type": "string"
        },
        {
          "name": "",
          "type": "string"
        },
        {
          "name": "",
          "type": "string"
        },
        {
          "name": "",
          "type": "string"
        },
        {
          "name": "",
          "type": "string"
        }
      ],
      "payable": false,
      "stateMutability": "view",
      "type": "function"
    },
    {
      "constant": true,
      "inputs": [],
      "name": "getOneLineSummary",
      "outputs": [
        {
          "name": "",
          "type": "string"
        }
      ],
      "payable": false,
      "stateMutability": "view",
      "type": "function"
    },
    {
      "constant": true,
      "inputs": [],
      "name": "getCurrentEmployer",
      "outputs": [
        {
          "name": "",
          "type": "string"
        }
      ],
      "payable": false,
      "stateMutability": "view",
      "type": "function"
    },
    {
      "constant": true,
      "inputs": [],
      "name": "getCurrentRole",
      "outputs": [
        {
          "name": "",
          "type": "string"
        }
      ],
      "payable": false,
      "stateMutability": "view",
      "type": "function"
    },
    {
      "constant": true,
      "inputs": [],
      "name": "getCollegeName",
      "outputs": [
        {
          "name": "",
          "type": "string"
        }
      ],
      "payable": false,
      "stateMutability": "view",
      "type": "function"
    },
    {
      "constant": true,
      "inputs": [],
      "name": "getAuthor",
      "outputs": [
        {
          "name": "",
          "type": "string"
        },
        {
          "name": "",
          "type": "string"
        }
      ],
      "payable": false,
      "stateMutability": "view",
      "type": "function"
    },
    {
      "constant": true,
      "inputs": [],
      "name": "getPhoto",
      "outputs": [
        {
          "name": "",
          "type": "string"
        }
      ],
      "payable": false,
      "stateMutability": "view",
      "type": "function"
    },
    {
      "constant": true,
      "inputs": [],
      "name": "getPriorExperienceCount",
      "outputs": [
        {
          "name": "",
          "type": "uint256"
        }
      ],
      "payable": false,
      "stateMutability": "view",
      "type": "function"
    },
    {
      "constant": true,
      "inputs": [],
      "name": "getCurrentCountry",
      "outputs": [
        {
          "name": "",
          "type": "string"
        }
      ],
      "payable": false,
      "stateMutability": "view",
      "type": "function"
    },
    {
      "constant": true,
      "inputs": [],
      "name": "getTitle",
      "outputs": [
        {
          "name": "",
          "type": "string"
        }
      ],
      "payable": false,
      "stateMutability": "view",
      "type": "function"
    },
    {
      "inputs": [],
      "payable": false,
      "stateMutability": "nonpayable",
      "type": "constructor"
    }
  ],
  "bytecode": "0x606060405234156200001057600080fd5b6200002e6200008e640100000000026200186b176401000000009004565b6200004c6200049b6401000000000262001c66176401000000009004565b6200006a6200074b6401000000000262001efe176401000000009004565b6200008862000993640100000000026200212d176401000000009004565b62000ebe565b60a060405190810160405280607b81526020017f68747470733a2f2f6d656469612e6c6963646e2e636f6d2f6d70722f6d70722f81526020017f736872696e6b6e705f3430305f3430302f41414541415141414141414141415181526020017f4e414141414a446330596d4535595751774c574d7a4d5445744e446b794e433181526020017f69596d457a4c544134597a6c6b4f545a6a4d445a684f512e6a706700000000008152506000800190805190602001906200015092919062000d85565b506040805190810160405280600d81526020017f53616e6a6179204d69736872610000000000000000000000000000000000000081525060006001019080519060200190620001a192919062000d85565b50608060405190810160405280604d81526020017f546563686e6963616c2045787065727420617420436f72706f7261746520526581526020017f7365617263682c205369656d656e7320546563686e6f6c6f677920536572766981526020017f636573205076742e204c74642e00000000000000000000000000000000000000815250600060020190805190602001906200023f92919062000d85565b506040805190810160405280601881526020017f5369656d656e7320546563686e6f6c6f677920496e6469610000000000000000815250600060030190805190602001906200029092919062000d85565b506040805190810160405280601a81526020017f4b756d616f6e20456e67696e656572696e6720436f6c6c65676500000000000081525060006004019080519060200190620002e192919062000d85565b506040805190810160405280600981526020017f42616e67616c6f72650000000000000000000000000000000000000000000000815250600060050190805190602001906200033292919062000d85565b506040805190810160405280600981526020017f4b61726e6174616b610000000000000000000000000000000000000000000000815250600060060190805190602001906200038392919062000d85565b5060a060405190810160405280606a81526020017f31322b207965617273206f6620657870657269656e636520696e20736f66747781526020017f6172652064657369676e20616e6420646576656c6f706d656e742e436f6e737581526020017f6c74616e7420696e20536f66747761726520617263686974656374757265206181526020017f6e642064657369676e2e00000000000000000000000000000000000000000000815250600060080190805190602001906200044792919062000d85565b506040805190810160405280600581526020017f496e646961000000000000000000000000000000000000000000000000000000815250600060070190805190602001906200049892919062000d85565b50565b620004a562000e0c565b60a060405190810160405280606881526020017f68747470733a2f2f656e637279707465642d74626e302e677374617469632e6381526020017f6f6d2f696d616765733f713d74626e3a414e64394763534f584c4f726c67566481526020017f61352d61354b756b6771544c5939674155633230366e384e37784b395a58315381526020017f34455474464e557200000000000000000000000000000000000000000000000081525081600001819052506040805190810160405280601b81526020017f4465706172746d656e74206f662041746f6d696320456e65726779000000000081525081602001819052506040805190810160405280600981526020017f536369656e74697374000000000000000000000000000000000000000000000081525081604001819052506040805190810160405280600c81526020017f4175677573742d2032303035000000000000000000000000000000000000000081525081606001819052506040805190810160405280600c81526020017f4175677573742d2032303037000000000000000000000000000000000000000081525081608001819052506040805190810160405280600781526020017f4d756d61626169000000000000000000000000000000000000000000000000008152508160a00181905250608060405190810160405280605581526020017f436f6d6d697373696f6e696e672053696d756c61746f7220666f72204b75646181526020017f6e6b756c616d204e75636c65617220506f77657220706c616e74202d2031303081526020017f30204d57204e75636c6561722052656163746f722000000000000000000000008152508160c00181905250620007368162000c1d640100000000026200239f176401000000009004565b600a6000815480929190600101919050555050565b6200075562000e0c565b60c06040519081016040528060818152602001620035956081913981600001819052506040805190810160405280601381526020017f5369656d656e73204865616c7468696e6565720000000000000000000000000081525081602001819052506040805190810160405280601281526020017f536f66747761726520417263686974656374000000000000000000000000000081525081604001819052506040805190810160405280600c81526020017f4175677573742d2032303037000000000000000000000000000000000000000081525081606001819052506040805190810160405280600b81526020017f417072696c2d203230313600000000000000000000000000000000000000000081525081608001819052506040805190810160405280600e81526020017f42616e67616c6f726520417265610000000000000000000000000000000000008152508160a0018190525060a060405190810160405280606681526020017f50726f766964696e672041726368697465637475726520737570706f7274206681526020017f6f7220666f7220204d4d4f6e636f6c6f67792c204d4943617264696f4c6f677981526020017f2c204d494e6575726f6c6f677920616e64204d492052656164696e6720776f7281526020017f6b666c6f777300000000000000000000000000000000000000000000000000008152508160c001819052506200097e8162000c1d640100000000026200239f176401000000009004565b600a6000815480929190600101919050555050565b6200099d62000e0c565b608060405190810160405280604a81526020017f68747470733a2f2f6d656469612e6c6963646e2e636f6d2f6d70722f6d70722f81526020017f736872696e6b5f3130305f3130302f702f342f3030302f3137322f3138652f3281526020017f3437623436332e706e670000000000000000000000000000000000000000000081525081600001819052506040805190810160405280601881526020017f5369656d656e7320546563686e6f6c6f677920496e646961000000000000000081525081602001819052506040805190810160405280601081526020017f546563686e6963616c204578706572740000000000000000000000000000000081525081604001819052506040805190810160405280600a81526020017f417072696c20323031360000000000000000000000000000000000000000000081525081606001819052506040805190810160405280600881526020017f54696c204461746500000000000000000000000000000000000000000000000081525081608001819052506040805190810160405280600e81526020017f42616e67616c6f726520417265610000000000000000000000000000000000008152508160a00181905250608060405190810160405280605c81526020017f44656c6976657220616e642070726f7669646520737570706f727420696e207381526020017f6f6674776172652061726368697465637475726520666f7220636f6d70616e7981526020017fe2809973206469666672656e7420427573696e65737320556e697473000000008152508160c0018190525062000c088162000c1d640100000000026200239f176401000000009004565b600a6000815480929190600101919050555050565b806000015160096000600a548152602001908152602001600020600001908051906020019062000c4f92919062000d85565b50806020015160096000600a548152602001908152602001600020600101908051906020019062000c8292919062000d85565b50806040015160096000600a548152602001908152602001600020600201908051906020019062000cb592919062000d85565b50806060015160096000600a548152602001908152602001600020600301908051906020019062000ce892919062000d85565b50806080015160096000600a548152602001908152602001600020600401908051906020019062000d1b92919062000d85565b508060a0015160096000600a548152602001908152602001600020600501908051906020019062000d4e92919062000d85565b508060c0015160096000600a548152602001908152602001600020600601908051906020019062000d8192919062000d85565b5050565b828054600181600116156101000203166002900490600052602060002090601f016020900481019282601f1062000dc857805160ff191683800117855562000df9565b8280016001018555821562000df9579182015b8281111562000df857825182559160200191906001019062000ddb565b5b50905062000e08919062000e82565b5090565b60e06040519081016040528062000e2262000eaa565b815260200162000e3162000eaa565b815260200162000e4062000eaa565b815260200162000e4f62000eaa565b815260200162000e5e62000eaa565b815260200162000e6d62000eaa565b815260200162000e7c62000eaa565b81525090565b62000ea791905b8082111562000ea357600081600090555060010162000e89565b5090565b90565b602060405190810160405280600081525090565b6126c78062000ece6000396000f3006060604052600436106100db576000357c0100000000000000000000000000000000000000000000000000000000900463ffffffff16806301efb7a4146100e057806317d7de7c1461016e5780631a092541146101fc578063378aa7011461028a57806338cc4831146103185780634245e6c9146103a65780635027f633146106ca5780635d5fa2b71461075857806365231307146107e65780636c08283f14610874578063a5faa12514610902578063b2ec005e146109fc578063ba9fa17714610a8a578063f173c2e214610ab3578063ff3c1a8f14610b41575b600080fd5b34156100eb57600080fd5b6100f3610bcf565b6040518080602001828103825283818151815260200191508051906020019080838360005b83811015610133578082015181840152602081019050610118565b50505050905090810190601f1680156101605780820380516001836020036101000a031916815260200191505b509250505060405180910390f35b341561017957600080fd5b610181610c7a565b6040518080602001828103825283818151815260200191508051906020019080838360005b838110156101c15780820151818401526020810190506101a6565b50505050905090810190601f1680156101ee5780820380516001836020036101000a031916815260200191505b509250505060405180910390f35b341561020757600080fd5b61020f610d25565b6040518080602001828103825283818151815260200191508051906020019080838360005b8381101561024f578082015181840152602081019050610234565b50505050905090810190601f16801561027c5780820380516001836020036101000a031916815260200191505b509250505060405180910390f35b341561029557600080fd5b61029d610d68565b6040518080602001828103825283818151815260200191508051906020019080838360005b838110156102dd5780820151818401526020810190506102c2565b50505050905090810190601f16801561030a5780820380516001836020036101000a031916815260200191505b509250505060405180910390f35b341561032357600080fd5b61032b610e13565b6040518080602001828103825283818151815260200191508051906020019080838360005b8381101561036b578082015181840152602081019050610350565b50505050905090810190601f1680156103985780820380516001836020036101000a031916815260200191505b509250505060405180910390f35b34156103b157600080fd5b6103c76004808035906020019091905050610e56565b604051808060200180602001806020018060200180602001806020018060200188810388528f818151815260200191508051906020019080838360005b8381101561041f578082015181840152602081019050610404565b50505050905090810190601f16801561044c5780820380516001836020036101000a031916815260200191505b5088810387528e818151815260200191508051906020019080838360005b8381101561048557808201518184015260208101905061046a565b50505050905090810190601f1680156104b25780820380516001836020036101000a031916815260200191505b5088810386528d818151815260200191508051906020019080838360005b838110156104eb5780820151818401526020810190506104d0565b50505050905090810190601f1680156105185780820380516001836020036101000a031916815260200191505b5088810385528c818151815260200191508051906020019080838360005b83811015610551578082015181840152602081019050610536565b50505050905090810190601f16801561057e5780820380516001836020036101000a031916815260200191505b5088810384528b818151815260200191508051906020019080838360005b838110156105b757808201518184015260208101905061059c565b50505050905090810190601f1680156105e45780820380516001836020036101000a031916815260200191505b5088810383528a818151815260200191508051906020019080838360005b8381101561061d578082015181840152602081019050610602565b50505050905090810190601f16801561064a5780820380516001836020036101000a031916815260200191505b50888103825289818151815260200191508051906020019080838360005b83811015610683578082015181840152602081019050610668565b50505050905090810190601f1680156106b05780820380516001836020036101000a031916815260200191505b509e50505050505050505050505050505060405180910390f35b34156106d557600080fd5b6106dd611385565b6040518080602001828103825283818151815260200191508051906020019080838360005b8381101561071d578082015181840152602081019050610702565b50505050905090810190601f16801561074a5780820380516001836020036101000a031916815260200191505b509250505060405180910390f35b341561076357600080fd5b61076b611430565b6040518080602001828103825283818151815260200191508051906020019080838360005b838110156107ab578082015181840152602081019050610790565b50505050905090810190601f1680156107d85780820380516001836020036101000a031916815260200191505b509250505060405180910390f35b34156107f157600080fd5b6107f96114db565b6040518080602001828103825283818151815260200191508051906020019080838360005b8381101561083957808201518184015260208101905061081e565b50505050905090810190601f1680156108665780820380516001836020036101000a031916815260200191505b509250505060405180910390f35b341561087f57600080fd5b610887611586565b6040518080602001828103825283818151815260200191508051906020019080838360005b838110156108c75780820151818401526020810190506108ac565b50505050905090810190601f1680156108f45780820380516001836020036101000a031916815260200191505b509250505060405180910390f35b341561090d57600080fd5b610915611631565b604051808060200180602001838103835285818151815260200191508051906020019080838360005b8381101561095957808201518184015260208101905061093e565b50505050905090810190601f1680156109865780820380516001836020036101000a031916815260200191505b50838103825284818151815260200191508051906020019080838360005b838110156109bf5780820151818401526020810190506109a4565b50505050905090810190601f1680156109ec5780820380516001836020036101000a031916815260200191505b5094505050505060405180910390f35b3415610a0757600080fd5b610a0f6116b5565b6040518080602001828103825283818151815260200191508051906020019080838360005b83811015610a4f578082015181840152602081019050610a34565b50505050905090810190601f168015610a7c5780820380516001836020036101000a031916815260200191505b509250505060405180910390f35b3415610a9557600080fd5b610a9d61175f565b6040518082815260200191505060405180910390f35b3415610abe57600080fd5b610ac6611769565b6040518080602001828103825283818151815260200191508051906020019080838360005b83811015610b06578082015181840152602081019050610aeb565b50505050905090810190601f168015610b335780820380516001836020036101000a031916815260200191505b509250505060405180910390f35b3415610b4c57600080fd5b610b54611814565b6040518080602001828103825283818151815260200191508051906020019080838360005b83811015610b94578082015181840152602081019050610b79565b50505050905090810190601f168015610bc15780820380516001836020036101000a031916815260200191505b509250505060405180910390f35b610bd7611857565b60006005018054600181600116156101000203166002900480601f016020809104026020016040519081016040528092919081815260200182805460018160011615610100020316600290048015610c705780601f10610c4557610100808354040283529160200191610c70565b820191906000526020600020905b815481529060010190602001808311610c5357829003601f168201915b5050505050905090565b610c82611857565b60006001018054600181600116156101000203166002900480601f016020809104026020016040519081016040528092919081815260200182805460018160011615610100020316600290048015610d1b5780601f10610cf057610100808354040283529160200191610d1b565b820191906000526020600020905b815481529060010190602001808311610cfe57829003601f168201915b5050505050905090565b610d2d611857565b6040805190810160405280601281526020017f5468697320697320616e206578616d706c650000000000000000000000000000815250905090565b610d70611857565b60006006018054600181600116156101000203166002900480601f016020809104026020016040519081016040528092919081815260200182805460018160011615610100020316600290048015610e095780601f10610dde57610100808354040283529160200191610e09565b820191906000526020600020905b815481529060010190602001808311610dec57829003601f168201915b5050505050905090565b610e1b611857565b6040805190810160405280601681526020017f687474703a2f2f7777772e6578616d706c652e6f726700000000000000000000815250905090565b610e5e611857565b610e66611857565b610e6e611857565b610e76611857565b610e7e611857565b610e86611857565b610e8e611857565b60096000898152602001908152602001600020600001600960008a8152602001908152602001600020600101600960008b8152602001908152602001600020600201600960008c8152602001908152602001600020600301600960008d8152602001908152602001600020600401600960008e8152602001908152602001600020600501600960008f8152602001908152602001600020600601868054600181600116156101000203166002900480601f016020809104026020016040519081016040528092919081815260200182805460018160011615610100020316600290048015610fbd5780601f10610f9257610100808354040283529160200191610fbd565b820191906000526020600020905b815481529060010190602001808311610fa057829003601f168201915b50505050509650858054600181600116156101000203166002900480601f0160208091040260200160405190810160405280929190818152602001828054600181600116156101000203166002900480156110595780601f1061102e57610100808354040283529160200191611059565b820191906000526020600020905b81548152906001019060200180831161103c57829003601f168201915b50505050509550848054600181600116156101000203166002900480601f0160208091040260200160405190810160405280929190818152602001828054600181600116156101000203166002900480156110f55780601f106110ca576101008083540402835291602001916110f5565b820191906000526020600020905b8154815290600101906020018083116110d857829003601f168201915b50505050509450838054600181600116156101000203166002900480601f0160208091040260200160405190810160405280929190818152602001828054600181600116156101000203166002900480156111915780601f1061116657610100808354040283529160200191611191565b820191906000526020600020905b81548152906001019060200180831161117457829003601f168201915b50505050509350828054600181600116156101000203166002900480601f01602080910402602001604051908101604052809291908181526020018280546001816001161561010002031660029004801561122d5780601f106112025761010080835404028352916020019161122d565b820191906000526020600020905b81548152906001019060200180831161121057829003601f168201915b50505050509250818054600181600116156101000203166002900480601f0160208091040260200160405190810160405280929190818152602001828054600181600116156101000203166002900480156112c95780601f1061129e576101008083540402835291602001916112c9565b820191906000526020600020905b8154815290600101906020018083116112ac57829003601f168201915b50505050509150808054600181600116156101000203166002900480601f0160208091040260200160405190810160405280929190818152602001828054600181600116156101000203166002900480156113655780601f1061133a57610100808354040283529160200191611365565b820191906000526020600020905b81548152906001019060200180831161134857829003601f168201915b505050505090509650965096509650965096509650919395979092949650565b61138d611857565b60006008018054600181600116156101000203166002900480601f0160208091040260200160405190810160405280929190818152602001828054600181600116156101000203166002900480156114265780601f106113fb57610100808354040283529160200191611426565b820191906000526020600020905b81548152906001019060200180831161140957829003601f168201915b5050505050905090565b611438611857565b60006003018054600181600116156101000203166002900480601f0160208091040260200160405190810160405280929190818152602001828054600181600116156101000203166002900480156114d15780601f106114a6576101008083540402835291602001916114d1565b820191906000526020600020905b8154815290600101906020018083116114b457829003601f168201915b5050505050905090565b6114e3611857565b60006002018054600181600116156101000203166002900480601f01602080910402602001604051908101604052809291908181526020018280546001816001161561010002031660029004801561157c5780601f106115515761010080835404028352916020019161157c565b820191906000526020600020905b81548152906001019060200180831161155f57829003601f168201915b5050505050905090565b61158e611857565b60006004018054600181600116156101000203166002900480601f0160208091040260200160405190810160405280929190818152602001828054600181600116156101000203166002900480156116275780601f106115fc57610100808354040283529160200191611627565b820191906000526020600020905b81548152906001019060200180831161160a57829003601f168201915b5050505050905090565b611639611857565b611641611857565b6040805190810160405280600681526020017f54686f6d617300000000000000000000000000000000000000000000000000008152506040805190810160405280601281526020017f74686f6d6173406578616d706c652e6f72670000000000000000000000000000815250915091509091565b6116bd611857565b600080018054600181600116156101000203166002900480601f0160208091040260200160405190810160405280929190818152602001828054600181600116156101000203166002900480156117555780601f1061172a57610100808354040283529160200191611755565b820191906000526020600020905b81548152906001019060200180831161173857829003601f168201915b5050505050905090565b6000600a54905090565b611771611857565b60006007018054600181600116156101000203166002900480601f01602080910402602001604051908101604052809291908181526020018280546001816001161561010002031660029004801561180a5780601f106117df5761010080835404028352916020019161180a565b820191906000526020600020905b8154815290600101906020018083116117ed57829003601f168201915b5050505050905090565b61181c611857565b6040805190810160405280600d81526020017f53696d706c654578616d706c6500000000000000000000000000000000000000815250905090565b602060405190810160405280600081525090565b60a060405190810160405280607b81526020017f68747470733a2f2f6d656469612e6c6963646e2e636f6d2f6d70722f6d70722f81526020017f736872696e6b6e705f3430305f3430302f41414541415141414141414141415181526020017f4e414141414a446330596d4535595751774c574d7a4d5445744e446b794e433181526020017f69596d457a4c544134597a6c6b4f545a6a4d445a684f512e6a7067000000000081525060008001908051906020019061192b9291906124f9565b506040805190810160405280600d81526020017f53616e6a6179204d6973687261000000000000000000000000000000000000008152506000600101908051906020019061197a9291906124f9565b50608060405190810160405280604d81526020017f546563686e6963616c2045787065727420617420436f72706f7261746520526581526020017f7365617263682c205369656d656e7320546563686e6f6c6f677920536572766981526020017f636573205076742e204c74642e0000000000000000000000000000000000000081525060006002019080519060200190611a169291906124f9565b506040805190810160405280601881526020017f5369656d656e7320546563686e6f6c6f677920496e646961000000000000000081525060006003019080519060200190611a659291906124f9565b506040805190810160405280601a81526020017f4b756d616f6e20456e67696e656572696e6720436f6c6c65676500000000000081525060006004019080519060200190611ab49291906124f9565b506040805190810160405280600981526020017f42616e67616c6f7265000000000000000000000000000000000000000000000081525060006005019080519060200190611b039291906124f9565b506040805190810160405280600981526020017f4b61726e6174616b61000000000000000000000000000000000000000000000081525060006006019080519060200190611b529291906124f9565b5060a060405190810160405280606a81526020017f31322b207965617273206f6620657870657269656e636520696e20736f66747781526020017f6172652064657369676e20616e6420646576656c6f706d656e742e436f6e737581526020017f6c74616e7420696e20536f66747761726520617263686974656374757265206181526020017f6e642064657369676e2e0000000000000000000000000000000000000000000081525060006008019080519060200190611c149291906124f9565b506040805190810160405280600581526020017f496e64696100000000000000000000000000000000000000000000000000000081525060006007019080519060200190611c639291906124f9565b50565b611c6e612579565b60a060405190810160405280606881526020017f68747470733a2f2f656e637279707465642d74626e302e677374617469632e6381526020017f6f6d2f696d616765733f713d74626e3a414e64394763534f584c4f726c67566481526020017f61352d61354b756b6771544c5939674155633230366e384e37784b395a58315381526020017f34455474464e557200000000000000000000000000000000000000000000000081525081600001819052506040805190810160405280601b81526020017f4465706172746d656e74206f662041746f6d696320456e65726779000000000081525081602001819052506040805190810160405280600981526020017f536369656e74697374000000000000000000000000000000000000000000000081525081604001819052506040805190810160405280600c81526020017f4175677573742d2032303035000000000000000000000000000000000000000081525081606001819052506040805190810160405280600c81526020017f4175677573742d2032303037000000000000000000000000000000000000000081525081608001819052506040805190810160405280600781526020017f4d756d61626169000000000000000000000000000000000000000000000000008152508160a00181905250608060405190810160405280605581526020017f436f6d6d697373696f6e696e672053696d756c61746f7220666f72204b75646181526020017f6e6b756c616d204e75636c65617220506f77657220706c616e74202d2031303081526020017f30204d57204e75636c6561722052656163746f722000000000000000000000008152508160c00181905250611ee98161239f565b600a6000815480929190600101919050555050565b611f06612579565b60c0604051908101604052806081815260200161261b6081913981600001819052506040805190810160405280601381526020017f5369656d656e73204865616c7468696e6565720000000000000000000000000081525081602001819052506040805190810160405280601281526020017f536f66747761726520417263686974656374000000000000000000000000000081525081604001819052506040805190810160405280600c81526020017f4175677573742d2032303037000000000000000000000000000000000000000081525081606001819052506040805190810160405280600b81526020017f417072696c2d203230313600000000000000000000000000000000000000000081525081608001819052506040805190810160405280600e81526020017f42616e67616c6f726520417265610000000000000000000000000000000000008152508160a0018190525060a060405190810160405280606681526020017f50726f766964696e672041726368697465637475726520737570706f7274206681526020017f6f7220666f7220204d4d4f6e636f6c6f67792c204d4943617264696f4c6f677981526020017f2c204d494e6575726f6c6f677920616e64204d492052656164696e6720776f7281526020017f6b666c6f777300000000000000000000000000000000000000000000000000008152508160c001819052506121188161239f565b600a6000815480929190600101919050555050565b612135612579565b608060405190810160405280604a81526020017f68747470733a2f2f6d656469612e6c6963646e2e636f6d2f6d70722f6d70722f81526020017f736872696e6b5f3130305f3130302f702f342f3030302f3137322f3138652f3281526020017f3437623436332e706e670000000000000000000000000000000000000000000081525081600001819052506040805190810160405280601881526020017f5369656d656e7320546563686e6f6c6f677920496e646961000000000000000081525081602001819052506040805190810160405280601081526020017f546563686e6963616c204578706572740000000000000000000000000000000081525081604001819052506040805190810160405280600a81526020017f417072696c20323031360000000000000000000000000000000000000000000081525081606001819052506040805190810160405280600881526020017f54696c204461746500000000000000000000000000000000000000000000000081525081608001819052506040805190810160405280600e81526020017f42616e67616c6f726520417265610000000000000000000000000000000000008152508160a00181905250608060405190810160405280605c81526020017f44656c6976657220616e642070726f7669646520737570706f727420696e207381526020017f6f6674776172652061726368697465637475726520666f7220636f6d70616e7981526020017fe2809973206469666672656e7420427573696e65737320556e697473000000008152508160c0018190525061238a8161239f565b600a6000815480929190600101919050555050565b806000015160096000600a54815260200190815260200160002060000190805190602001906123cf9291906124f9565b50806020015160096000600a54815260200190815260200160002060010190805190602001906124009291906124f9565b50806040015160096000600a54815260200190815260200160002060020190805190602001906124319291906124f9565b50806060015160096000600a54815260200190815260200160002060030190805190602001906124629291906124f9565b50806080015160096000600a54815260200190815260200160002060040190805190602001906124939291906124f9565b508060a0015160096000600a54815260200190815260200160002060050190805190602001906124c49291906124f9565b508060c0015160096000600a54815260200190815260200160002060060190805190602001906124f59291906124f9565b5050565b828054600181600116156101000203166002900490600052602060002090601f016020900481019282601f1061253a57805160ff1916838001178555612568565b82800160010185558215612568579182015b8281111561256757825182559160200191906001019061254c565b5b50905061257591906125e1565b5090565b60e06040519081016040528061258d612606565b815260200161259a612606565b81526020016125a7612606565b81526020016125b4612606565b81526020016125c1612606565b81526020016125ce612606565b81526020016125db612606565b81525090565b61260391905b808211156125ff5760008160009055506001016125e7565b5090565b90565b602060405190810160405280600081525090560068747470733a2f2f6d656469612e6c6963646e2e636f6d2f6d70722f6d70722f736872696e6b5f3230305f3230302f414149414241444741414141415141414141414141417736414141414a475a6a4e5745354d57526a4c544d784e444d744e4755354e693169595441304c574d355a6a497a4e4463354e6d566a4e512e706e67a165627a7a7230582072822309253e9723d3b104e37eaa9d2153122ccfd2eabdc4f1e50845d0ccc41d002968747470733a2f2f6d656469612e6c6963646e2e636f6d2f6d70722f6d70722f736872696e6b5f3230305f3230302f414149414241444741414141415141414141414141417736414141414a475a6a4e5745354d57526a4c544d784e444d744e4755354e693169595441304c574d355a6a497a4e4463354e6d566a4e512e706e67",
  "source": "pragma solidity ^0.4.15;\r\n\r\n//import \"./CVExtender.sol\";\r\n\r\ncontract CV  {\r\n\r\n    /**\r\n     * Your functions go here\r\n     *\r\n     * */\r\n     \r\n     struct Summary{\r\n         string Photo;\r\n         string Name;\r\n         string CurrentRole;\r\n         string CurrentEmployer;\r\n         string CollegeName;\r\n         string CurrentCity;\r\n         string CurrentState;\r\n         string CurrentCountry;\r\n         string OneLineSummary;\r\n     }\r\n     struct Experience{\r\n         string\tCompanyLogo;\r\n\t     string EmployeerName; \r\n\t     string Role;\r\n\t     string DuraitonFrom;\r\n\t     string DurationTo;\t\r\n\t     string Address;\r\n         string Responsibility;\r\n     }\r\n\r\n    \r\n    Summary myWorkSummary;\r\n    mapping(uint=>Experience) myWorkExperience;\r\n    uint myExperienceCount;\r\n    \r\n    \r\n     function getPhoto() public constant returns(string) {\r\n       return myWorkSummary.Photo;\r\n    }\r\n    \r\n     function getName() public constant returns(string) {\r\n       return myWorkSummary.Name;\r\n       }\r\n    \r\n     function getCurrentRole() public constant returns(string) {\r\n       return myWorkSummary.CurrentRole;\r\n    }\r\n    \r\n\r\n    function getCurrentEmployer() public constant returns(string) {\r\n       return myWorkSummary.CurrentEmployer;\r\n    }\r\n    \r\n     function getCollegeName() public constant returns(string) {\r\n       return myWorkSummary.CollegeName;\r\n    }\r\n    \r\n     function getCurrentCity() public constant returns(string) {\r\n       return myWorkSummary.CurrentCity;\r\n    }\r\n    \r\n     function getCurrentState() public constant returns(string) {\r\n       return myWorkSummary.CurrentState;\r\n    }\r\n    \r\n     function getCurrentCountry() public constant returns(string) {\r\n       return myWorkSummary.CurrentCountry;\r\n    }\r\n     function getOneLineSummary() public constant returns(string) {\r\n       return myWorkSummary.OneLineSummary;\r\n    }\r\n    \r\n    function getPriorExperienceCount() public constant returns (uint){\r\n        return myExperienceCount;\r\n    }\r\n    \r\n    function getPriorExperience(uint companyID) public constant returns(string,string,string, string,string, string, string){\r\n        return(myWorkExperience[companyID].CompanyLogo,\r\n        myWorkExperience[companyID].EmployeerName,\r\n        myWorkExperience[companyID].Role,\r\n        myWorkExperience[companyID].DuraitonFrom,\r\n        myWorkExperience[companyID].DurationTo,\r\n        myWorkExperience[companyID].Address,\r\n        myWorkExperience[companyID].Responsibility);\r\n        \r\n    }   \r\n    \r\n    \r\n    \r\n    \r\n    function CV() public{\r\n        \r\n        updateBasicInfo();\r\n        createDAEWorkExperience();\r\n        createSiemensHealthineersWorkExperience();\r\n        createSiemensWorkExperience();\r\n        \r\n    }\r\n    \r\n    function updateBasicInfo() private{\r\n        myWorkSummary.Photo= \"https://media.licdn.com/mpr/mpr/shrinknp_400_400/AAEAAQAAAAAAAAQNAAAAJDc0YmE5YWQwLWMzMTEtNDkyNC1iYmEzLTA4YzlkOTZjMDZhOQ.jpg\";\r\n        myWorkSummary.Name = \"Sanjay Mishra\";\r\n        myWorkSummary.CurrentRole = \"Technical Expert at Corporate Research, Siemens Technology Services Pvt. Ltd.\";\r\n        myWorkSummary.CurrentEmployer = \"Siemens Technology India\";\r\n        myWorkSummary.CollegeName = \"Kumaon Engineering College\";\r\n        myWorkSummary.CurrentCity= \"Bangalore\";\r\n        myWorkSummary.CurrentState =\"Karnataka\";\r\n        myWorkSummary.OneLineSummary = \"12+ years of experience in software design and development.Consultant in Software architecture and design.\";\r\n        myWorkSummary.CurrentCountry = \"India\";       \r\n    }\r\n    \r\n    function updateWorkExperience(Experience experience) private{\r\n        myWorkExperience[myExperienceCount].CompanyLogo = experience.CompanyLogo;\r\n        myWorkExperience[myExperienceCount].EmployeerName = experience.EmployeerName;\r\n        myWorkExperience[myExperienceCount].Role = experience.Role;\r\n        myWorkExperience[myExperienceCount].DuraitonFrom = experience.DuraitonFrom;\r\n        myWorkExperience[myExperienceCount].DurationTo = experience.DurationTo;\r\n        myWorkExperience[myExperienceCount].Address = experience.Address;\r\n        myWorkExperience[myExperienceCount].Responsibility = experience.Responsibility;\r\n        \r\n    }\r\n    \r\n    function createSiemensWorkExperience() private{\r\n        Experience memory experience;\r\n        experience.CompanyLogo= \"https://media.licdn.com/mpr/mpr/shrink_100_100/p/4/000/172/18e/247b463.png\";\r\n        experience.EmployeerName=\"Siemens Technology India\";\r\n        experience.Role = \"Technical Expert\";\r\n        experience.DuraitonFrom = \"April 2016\";\r\n        experience.DurationTo =\"Til Date\";\r\n        experience.Address =\"Bangalore Area\";\r\n        experience.Responsibility= \"Deliver and provide support in software architecture for companys diffrent Business Units\";\r\n        updateWorkExperience(experience);\r\n        myExperienceCount++;\r\n    }\r\n    \r\n     function createSiemensHealthineersWorkExperience() private{\r\n        Experience memory experience;\r\n        experience.CompanyLogo= \"https://media.licdn.com/mpr/mpr/shrink_200_200/AAIABADGAAAAAQAAAAAAAAw6AAAAJGZjNWE5MWRjLTMxNDMtNGU5Ni1iYTA0LWM5ZjIzNDc5NmVjNQ.png\";\r\n        experience.EmployeerName=\"Siemens Healthineer\";\r\n        experience.Role = \"Software Architect\";\r\n        experience.DuraitonFrom = \"August- 2007\";\r\n        experience.DurationTo =\"April- 2016\";\r\n        experience.Address =\"Bangalore Area\";\r\n        experience.Responsibility= \"Providing Architecture support for for  MMOncology, MICardioLogy, MINeurology and MI Reading workflows\";\r\n        updateWorkExperience(experience);\r\n        myExperienceCount++;\r\n    }\r\n    \r\n    function createDAEWorkExperience() private{\r\n        Experience memory experience;\r\n        experience.CompanyLogo= \"https://encrypted-tbn0.gstatic.com/images?q=tbn:ANd9GcSOXLOrlgVda5-a5KukgqTLY9gAUc206n8N7xK9ZX1S4ETtFNUr\";\r\n        experience.EmployeerName=\"Department of Atomic Energy\";\r\n        experience.Role = \"Scientist\";\r\n        experience.DuraitonFrom = \"August- 2005\";\r\n        experience.DurationTo =\"August- 2007\";\r\n        experience.Address =\"Mumabai\";\r\n        experience.Responsibility= \"Commissioning Simulator for Kudankulam Nuclear Power plant - 1000 MW Nuclear Reactor \";\r\n        updateWorkExperience(experience);\r\n        myExperienceCount++;\r\n    }\r\n\r\n\r\n    /**\r\n     * Below is for our CV!\r\n     * */\r\n    function getAddress() public constant returns(string) {\r\n        return \"http://www.example.org\";\r\n    }\r\n\r\n    function getDescription() public constant returns(string) {\r\n        return \"This is an example\";\r\n    }\r\n    function getTitle() public constant returns(string) {\r\n        return \"SimpleExample\";\r\n    }\r\n    function getAuthor() public constant returns(string, string) {\r\n        return (\"Thomas\", \"thomas@example.org\");\r\n    }\r\n}",
  "sourcePath": "D:\\Blockchain\\sandbox\\sandbox\\BlockChain\\CVInBlockchain\\contracts\\CV.sol",
  "compiler": {
    "name": "solc",
    "version": "0.4.18+commit.9cf6e910.Emscripten.clang"
  },
  "schemaVersion": "1.0.1",
  "updatedAt": "2017-11-30T13:42:32.045Z"
}